:020000022000DC
:1060000000F0002069630200516302005363020044
:10601000556302005763020059630200000000004C
:106020000000000000000000000000005B630200B0
:106030005D630200000000005F6302006163020014
:106040006363020063630200636302006363020030
:10605000E1B9050063630200A9A1040063630200C3
:106060006363020063630200955A040063630200E5
:106070006363020063630200636302006363020000
:1060800063630200916205007F08030063630200FE
:10609000016305006363020009B704006363020043
:1060A00063630200636302006363020063630200D0
:1060B0006363020063630200000000000000000050
:1060C00063630200636302006363020063630200B0
:1060D0006363020063630200636302000000000068
:1060E00000000000000000000000000000000000B0
:1060F00000000000000000000000000000000000A0
:10610000000000000000000000000000000000008F
:10611000000000000000000000000000000000007F
:10612000000000000000000000000000000000006F
:10613000000000000000000000000000000000005F
:10614000000000000000000000000000000000004F
:10615000000000000000000000000000000000003F
:10616000000000000000000000000000000000002F
:10617000000000000000000000000000000000001F
:10618000000000000000000000000000000000000F
:1061900000000000000000000000000000000000FF
:1061A00000000000000000000000000000000000EF
:1061B00000000000000000000000000000000000DF
:1061C00000000000000000000000000000000000CF
:1061D00000000000000000000000000000000000BF
:1061E00000000000000000000000000000000000AF
:1061F000000000000000000000000000000000009F
:10620000334934480A1A02D0072291438D46324955
:1062100032480A1A06D00722914381F309880222E4
:1062200082F314882E482F492F4A00F03FF82F4858
:106230002F49304A00F03AF82F483049304A00F0F0
:1062400035F830483049314A00F030F830483149AB
:10625000314A00F02BF831483149324A00F026F833
:1062600031483249324A00F021F83248324900229E
:1062700000F027F831483249002200F022F8314876
:106280003149091A36F040F81F482049884205D0A4
:106290000268043003B4904703BCF7E70020864649
:1062A000EC4600200021294A9047FEE7884207D0AB
:1062B000521A05D0037801300B700131013AF9D13F
:1062C0007047884202D002700130FAE77047000040
:1062D00000F0002000E8002000F0002000F0002086
:1062E00008EC0500F02D00205C2F00209C630200CC
:1062F0009C63020070C3050008EC0500F02D00202F
:10630000F02D0020C8C70500C8C70500C8C7050094
:10631000C8C70500C8C70500C8C70500C8C705002D
:10632000C8C7050006EC050074ED05005C2F0020D1
:106330005C2F00205C2F0020607000206070002027
:10634000607000206070002060740020756A020098
:10635000FEE7FEE7FEE7FEE7FEE7FEE7FEE7FEE715
:10636000FEE7FEE700F002B8FFF7FCBF08484FF079
:10637000070188438546074880470748016841F47C
:1063800070010160BFF34F8FBFF36F8FFFF738BF0E
:0C63900000F00020F9C3040088ED00E0DC
:10639C0041DF704700BF184677DF704700BF1846D3
:1063AC0080B400AF034BD3F804351846BD465DF8F6
:1063BC00047B70470010014080B500AF01F080FFF6
:1063CC0000BF80BD80B483B000AF786000BF0C37D5
:1063DC00BD465DF8047B704790B583B002AF114B9E
:1063EC001B6803F48043002B0ED00F4B1B68032B50
:1063FC000ADD0E4CFFF7D4FF03460D4A00929322A0
:10640C00214604200CF0CAFD2FF01EF80322C821EF
:10641C000F2000F031FF12F077FE00BF0437BD46AD
:10642C0090BD00BFF02E0020F42E0020F7C7050011
:10643C0000C8050080B582B000AF78607B681B781F
:10644C00232B01D1FFF7C8FF00BF0837BD4680BD25
:10645C0080B582B000AF00237B6004E002F062F8EC
:10646C007B6801337B607B68022BF7DD00BF00BFCC
:10647C000837BD4680BD000090B585B002AF78608E
:10648C007B6801337B605B4B1B6803F48043002B00
:10649C0011D0594B1B68032B0DDD584CFFF780FFB7
:1064AC0002467B680193564B00931346B722214654
:1064BC0004200CF073FD7B68013B032B7CD801A2FC
:1064CC0052F823F0E1640200176502004B650200EC
:1064DC0081650200474B1B6803F48043002B0ED0F0
:1064EC00454B1B68032B0ADD444CFFF759FF034651
:1064FC00444A0092BF22214604200CF04FFD4FF677
:10650C00FF71022001F036FF6FE03A4B1B6803F479
:10651C008043002B0ED0384B1B68032B0ADD374C05
:10652C00FFF73EFF0346384A0092C522214604205D
:10653C000CF034FD01F096FE01F0A0FE55E02D4B61
:10654C001B6803F48043002B0ED02B4B1B68032BD2
:10655C000ADD2A4CFFF724FF03462C4A0092CD2279
:10656C00214604200CF01AFD294A0021002026F0B7
:10657C0057F93AE012F0AEFD0346002B06D015F0A9
:10658C00C3F912F099FDFFF727FF2BE0194B1B689D
:10659C0003F48043002B25D0174B1B68032B21DD04
:1065AC00164CFFF7FDFE03461A4A0092E4222146E0
:1065BC0004200CF0F3FC15E00E4B1B6803F4804335
:1065CC00002B11D00C4B1B68032B0DDD0B4CFFF774
:1065DC00E7FE0346104A0092EA22214604200CF002
:1065EC00DDFC01E000BF00E000BF00BF0C37BD4682
:1065FC0090BD00BFF02E0020F42E0020F7C7050040
:10660C001CC8050030C8050040C8050060C805005E
:10661C005D64020070C80500F0C9050090B587B034
:10662C0002AF78607B68302B0ADD7B68342B07DC8B
:10663C007B68313BFB60F868FFF71EFF00BF14E07E
:10664C000C4B1B6803F48043002B0ED00A4B1B68C9
:10665C00032B0ADD094CFFF7A3FE0346084A009200
:10666C00F922214604200CF099FC00BF1437BD46DA
:10667C0090BD00BFF02E0020F42E0020F7C70500BF
:10668C00F0C9050080B582B000AF0346FB71002154
:10669C000F2000F0C7FDFA7913469B0013445B00F2
:1066AC001A463221032000F0E7FD00BF0837BD4633
:1066BC0080BD80B500AF00F035FE00BF80BD00008E
:1066CC0090B585B002AF3B1D18461CF00BF90E4B74
:1066DC001B6803F48043002B11D00C4B1B68032B5D
:1066EC000DDD0B4CFFF75CFE0346BA880192094A9C
:1066FC0000924FF48772214604200CF04FFC00BF2F
:10670C000C37BD4690BD00BFF02E0020F42E0020AB
:10671C00F7C70500A8C8050090B583B002AF154BAC
:10672C001B6803F48043002B0FD0134B1B68032B07
:10673C000BDD124CFFF734FE0346114A009240F277
:10674C001312214604200CF029FC01F04BF901F046
:10675C0089F9FFF7B5FF00F0E5FD00210F2000F0EF
:10676C0061FD0422C8210F2000F086FD00BF043714
:10677C00BD4690BDF02E0020F42E0020F7C705007A
:10678C00C0C8050090B583B002AF0E4B1B6803F474
:10679C008043002B0FD00C4B1B68032B0BDD0B4CD9
:1067AC00FFF7FEFD03460A4A00924FF4927221460F
:1067BC0004200CF0F3FBFFF7FFFD00BF0437BD46D0
:1067CC0090BD00BFF02E0020F42E0020F7C705006E
:1067DC00DCC8050090B58FB002AF2EF0E7FD3B1D75
:1067EC0024220021184635F0BBFC01233B71072302
:1067FC00FB7106233B732C4B7B612C4B7B623B1D4B
:10680C002B49184612F024FBF862FB6A002B02D1CC
:10681C002EF0F0FDF862FB6A002B3DD0FB6A0B2BCF
:10682C002ED12EF011FE234B1B6803F48043002B5A
:10683C000FD0214B1B68032B0BDD204CFFF7B0FD59
:10684C0003461F4A00924FF4A272214604200CF01A
:10685C00A5FB184B1B6803F48043002B1ED0164B72
:10686C001B68032B1ADD154CFFF79AFD0346154ADE
:10687C00009240F24512214604200CF08FFB0DE0F3
:10688C00FB6ABB62BB6A002B09D00F4A4FF4A5719F
:10689C00B86A25F019FF02E000BF00E000BF00BF9E
:1068AC003437BD4690BD00BF4164020091670200C1
:1068BC005C2F0020F02E0020F42E0020F7C70500DE
:1068CC00FCC805004CC90500C8C7050090B587B0C9
:1068DC0002AF254A05214FF410300CF043FB234B3B
:1068EC001B6803F48043002B0FD0214B1B68032B38
:1068FC000BDD204CFFF754FD03461F4A009240F27B
:10690C005112214604200CF049FB1C4A0A21042098
:10691C0025F048FFF860FB68BB60BB68002B02D019
:10692C00B86825F0BBFE2FF0EBFC78607B68002B81
:10693C0005D0134A40F25511786825F0C5FE00F0D9
:10694C0003FD00F0F6FF01F04DF8042200210120B8
:10695C00FFF722FD01F086F8FFF73CFF01F0B8FDD0
:10696C0000BF1437BD4690BD352F0300F02E00201C
:10697C00F42E0020F7C7050088C90500602F002001
:10698C00C8C70500B0B58CB002AF64212D4800F02B
:10699C00D5FA2D4B1B7883F00103DBB2002B17D0FB
:1069AC002A4B3C1D1D460FCD0FC495E8070084E80B
:1069BC0007003B1D184600F039FA78627B6A002B01
:1069CC0008D0234A40F27B11786A25F07DFE01E065
:1069DC00FFF776FE02F086F80346184600F00CFD31
:1069EC001C4807F0C1FD12F0B1FA38623B6A002B6B
:1069FC0005D0174A40F28711386A25F065FE164B10
:106A0C001B6803F48043002B0FD0144B1B68032B23
:106A1C000BDD134CFFF7C4FC0346124A009240F204
:106A2C008912214604200CF0B9FA00210C2000F048
:106A3C00F9FB0222C8210C2000F01EFC00BF2837F5
:106A4C00BD46B0BD296602005C2F0020D4C90500EC
:106A5C00C8C70500F02D0020F02E0020F42E0020D9
:106A6C00F7C70500F0C9050080B500AFFFF72EFF92
:106A7C00FFF788FF25F04CFFFFF78AFCFAE769DF88
:106A8C00704700BF1846000080B483B000AF786038
:106A9C007B681B781F2B02D1044B01221A7000BF9C
:106AAC000C37BD465DF8047B704700BFB233002045
:106ABC0080B584B000AF78607B681B781C2B0FD13D
:106ACC00094B1B78002B0BD024F0B0FDF860FB6851
:106ADC00002B02D0F86825F0E1FD044807F04FFDCB
:106AEC0000BF1037BD4680BDE42F0020082E0020CB
:106AFC0080B594B000AF03463960FB715D4B1B78D9
:106B0C0083F00103DBB2002B40F0AC80FB79012B4E
:106B1C0003D0032B00F09A80A9E000237B6207F1DD
:106B2C0024031946012024F05FFA78647B6C3B64E3
:106B3C003B6C002B02D0386C25F0B0FD07F118032C
:106B4C000C220021184635F00BFB3B7E012262F330
:106B5C0003033B763B7E012262F307133B767B7E7D
:106B6C00012262F301037B760023FB6100233B844B
:106B7C0010237B847A6A07F1180319464120FFF72A
:106B8C007EFFF863FB6B002B02D0F86B25F086FDC3
:106B9C0007F12403184624F0B5FA78647B6CBB63C8
:106BAC00BB6B002B02D0B86B25F078FD324B1B6809
:106BBC00002B02D0304B1B68984701233B6107F137
:106BCC00100207F11603114618461CF0F1FD78630C
:106BDC007B6B002B02D0786B25F060FDFB8A18468E
:106BEC001CF0B6F803461A4607F10F031946104677
:106BFC001CF0F0FA38633B6B002B02D0386B25F09D
:106C0C004DFD14F0D7FDFB7B1946002014F0A4FFBA
:106C1C000346002B04D07B46FB62F86A01F078F83F
:106C2C0007F018FC78647B6CBB62BB6A002B02D04B
:106C3C00B86A25F033FD0F4B00221A700E4B5B68BF
:106C4C00002B11D00C4B5B6898470DE024F09CFC9A
:106C5C00F864FB6CBB64BB6C002B07D0B86C25F0E4
:106C6C001DFD03E000BF02E000BF00E000BF503795
:106C7C00BD4680BDE42F00200032002080B582B0DC
:106C8C0000AF094B01221A70084807F06DFC07F0A1
:106C9C003DFC78607B68002B02D0786825F0FEFC08
:106CAC0000BF0837BD4680BDE42F0020082E002011
:106CBC0080B582B000AF124B1B78002B01D008239B
:106CCC0019E000237B6001237B607B6843F00203A7
:106CDC007B600C490C4826F039FE38603B68002B71
:106CEC0001D03B6807E0094B59697B6800220848D2
:106CFC0026F03AFE034618460837BD4680BD00BF55
:106D0C00B23300209033002050330020003200209A
:106D1C001C32002080B584B000AF78607B681B7893
:106D2C00023B082B6ED801A252F823F09F6D020093
:106D3C005D6D0200816D0200116E0200116E020089
:106D4C00CD6D0200116E0200116E0200EB6D02009F
:106D5C00324B9B68002B57D07B681B7A002B53D08F
:106D6C002F4B01221A702D4B9B687A68127A1046B1
:106D7C00984749E0294BDB68002B47D0284B1B7800
:106D8C00002B43D0264B00221A70244BDB6898470B
:106D9C003CE0244B1B7883F00103DBB2002B0CD0BE
:106DAC001E4B1B69002B05D01D4B00221A701B4B70
:106DBC001B699847FFF77CFF2BE0FFF75FFF28E08C
:106DCC00164B9B6910221946174826F065FEB860D1
:106DDC00BB68002B1CD0B86825F060FC18E07B6801
:106DEC00DA687B689B681946104612F0C5F8F860A3
:106DFC00FB68002B02D0F86825F050FC094B0122EF
:106E0C001A7006E000BF04E000BF02E000BF00E023
:106E1C0000BF00BF1037BD4680BD00BF0032002050
:106E2C00B1330020B03300201C320020B0B58CB040
:106E3C0002AF78602B4A07F10C0307CA03C31A8010
:106E4C000233120C1A70284A7B6814461D460FCD6B
:106E5C000FC495E8070084E80700234B9B69002BBF
:106E6C0001D1072339E007F10C03204A0092204A94
:106E7C002049214826F0D9FC78627B6A002B01D08E
:106E8C007B6A2AE01D4829F041F8034619461A4846
:106E9C0026F034FD38623B6A002B01D03B6A1CE0C3
:106EAC00174829F0E1FAF861FB69002B01D0FB6966
:106EBC0013E0134829F01AFB034619460E4826F036
:106ECC001DFDB861BB69002B01D0BB6905E00D4805
:106EDC0007F04AFBFFF7ECFE034618462837BD4681
:106EEC00B0BD00BF34CB050000320020216D020084
:106EFC0090330020503300201C320020383000200A
:106F0C00E82F0020FC2D002080B584B000AF786005
:106F1C00094B1B68002B0BD020F088FCF860FB6839
:106F2C00002B04DB044B1B68F8689847F4E700BFA0
:106F3C0000BF1037BD4680BDB43300202DE9F04FA3
:106F4C0087B000AFF860B960244AFB681360244A2C
:106F5C00012124482FF012FA78617B69002B04D0B0
:106F6C00214A4A21786925F0AFFB204EBB680022EC
:106F7C009A4693464FEA5A454FEACA3441F2707327
:106F8C009C4275F1000315D3BB68002298469146CC
:106F9C004FEA58437B604FEAC8333B604FF47A7238
:106FAC004FF00003D7E9000134F0DCFF02460B463A
:106FBC00134600E005230022194630462FF012FA42
:106FCC0038613B69002B04D0074A4B21386925F006
:106FDC007BFB00BF1C37BD46BDE8F08FB4330020EF
:106FEC00156F020040CB050044CB0500B8330020E0
:106FFC0080B483B000AF78604FF0A04318460C37D4
:10700C00BD465DF8047B704780B584B000AF7860F6
:10701C003B1D1846FFF7ECFFF860F86800F00AF823
:10702C0002467B6822FA03F303F00103184610377B
:10703C00BD4680BD80B483B000AF78607B68D3F868
:10704C00043518460C37BD465DF8047B70470000CC
:10705C0080B584B000AF78600023FB600023BB6078
:10706C001BE00122BB6802FA03F31A467B6813404B
:10707C00002B0FD00D4ABB6813441B78184600F048
:10708C00ABF803461A46BB6802FA03F31A46FB68D0
:10709C001343FB60BB680133BB60BB68032BE0D9B7
:1070AC00FB6818461037BD4680BD00BF74CB050089
:1070BC0090B585B000AF78600023FB6027E001221B
:1070CC00FB6802FA03F31A467B681340002B1BD0B3
:1070DC00134AFB6813441B781C46114AFB68134483
:1070EC001B78184600F078F80346002B14BF0123D8
:1070FC000023DBB283F00103DBB203F00103DBB24C
:10710C001946204600F079F8FB680133FB60FB68F8
:10711C00032BD4D900BF00BF1437BD4690BD00BFB0
:10712C0074CB050080B584B000AF7860254B1B682C
:10713C00002B14BF01230023DBB2BB60BB68002B08
:10714C0002D1002025F0AAFA1F4B1B681846FFF746
:10715C00AFFF1C4B1B68013B1A4A1360194B1B6891
:10716C00002B2AD1194B18462FF074F90023FB6021
:10717C0020E00122FB6802FA03F31A46124B1B684B
:10718C001340002B13D0124AFB6813441B7818468B
:10719C00104B1A68FB6822FA03F303F00103002B6F
:1071AC0014BF01230023DBB2194600F026F8FB685C
:1071BC000133FB60FB68032BDBD900BF1037BD46E6
:1071CC0080BD00BFF8330020FC330020D8330020F2
:1071DC0074CB05000034002080B582B000AF78601D
:1071EC007868FFF711FF0346002B0CBF0123002327
:1071FC00DBB218460837BD4680BD80B582B000AF03
:10720C0078600B46FB70FB78002B03D0786822F07B
:10721C0031FF02E0786822F022FF00BF0837BD463C
:10722C0080BD000080B584B000AF78600B46FB7069
:10723C000023FB6015E00122FB6802FA03F31A46F7
:10724C007B681340002B09D00A4AFB6813441B7857
:10725C001A46FB7819461046FFF7CFFFFB6801333F
:10726C00FB60FB68032BE6D900BF00BF1037BD469F
:10727C0080BD00BF74CB05002DE9F04385B000AF95
:10728C00F860B9607A607B68002B3DD0BB68132B2B
:10729C003AD9204AFB6813607B685B00013B1E4AAD
:1072AC0013601C4B1B681846FFF7D2FE03461B4AA3
:1072BC0013601B4EBB6800221C4615464FF00002A3
:1072CC004FF00003EB0343EA5443E20312F5FA7860
:1072DC0043F100094FF47A724FF0000340464946DF
:1072EC0034F040FE02460B46134600221946304647
:1072FC002FF078F80346002B07D1064B1B680121B1
:10730C001846FFF78FFF00E000BF1437BD46BDE8FD
:10731C00F08300BFFC330020F83300200034002041
:10732C00D833002080B500AF054B18462FF092F8EB
:10733C00044B1B6800211846FFF774FF00BF80BD8B
:10734C00D8330020FC33002080B586B000AF22F08B
:10735C002BFE034683F00103DBB2002B08D022F096
:10736C00C9FD38613B69002B02D0386925F096F9CC
:10737C003B1D00210A461A800A469A7001237B7134
:10738C0000237B6113E0134A7B6913441B781A4674
:10739C003B1D1946104622F019FEB860BB68002B45
:1073AC0002D0B86825F07AF97B6901337B617B697F
:1073BC00032BE8D9084A012108482EF0DFFFF860BA
:1073CC00FB68002B02D0F86825F068F900BF18376D
:1073DC00BD4680BD74CB05003171020070CB050039
:1073EC0080B400AF034BD3F804351846BD465DF8A6
:1073FC00047B704700100140F0B5D9B00CAF07F515
:10740C009873A3F58A73186007F59873A3F58A73BC
:10741C001B68002B00F0EC8007F59873A3F58A73BA
:10742C001B68C7F82831754B1B6803F48043002B8D
:10743C0064D0734B1B68032B60DD1023C7F8243119
:10744C00D7F82431802B28BF8023C7F824310023A0
:10745C00C7F82C3132E007F59873A3F58A731A68D4
:10746C00D7F82C3113441B7887F82331654B1A68F5
:10747C0097F823311B09DBB203F00F031A44D7F83A
:10748C002C315B00117807F59872A2F58872D154F3
:10749C005C4B1A6897F8233103F00F031A44D7F8A2
:1074AC002C315B000133117807F59872A2F58872C4
:1074BC00D154D7F82C310133C7F82C31D7F82C2103
:1074CC00D7F824319A42C6D3D7F824315B0007F59C
:1074DC009872A2F588720021D1544B4CFFF780FFB3
:1074EC00024607F120030293484B0193484B00934B
:1074FC0013464222214604200BF050FD3F4B1B68E3
:10750C0003F48043002B74D03D4B1B68032B70DDC0
:10751C003D4DFFF765FF0446D7F828311B681A0666
:10752C00D7F828311B681B0203F47F031A43D7F8E2
:10753C0028311B681B0A03F47F431A43D7F8283100
:10754C001B681B0E1343D7F82821928892B21202A3
:10755C0091B2D7F82821928892B2120A92B2D2B282
:10756C000A43D7F82811C98889B2090288B2D7F81A
:10757C002811C98889B2090A89B2C9B20143D7F85E
:10758C002801007A0646D7F82801407AB861D7F866
:10759C002801807A7861D7F82801C07A3861D7F849
:1075AC002801007BF860D7F82801407BB860D7F839
:1075BC002801807B7860D7F82801C07B0B90786815
:1075CC000A90B8680990F86808903869079078694B
:1075DC000690B869059004960391029201930D4BA5
:1075EC00009323464322294604200BF0D7FC00E0ED
:1075FC0000BF07F59A77BD46F0BD00BFF02E002006
:10760C00F42E0020EC2E002098CB0500ACCB05000E
:10761C00C0CB0500C8CB050072DF704700BF184611
:10762C0073DF704700BF184674DF704700BF184601
:10763C0080B5A8B000AF03463960FB8013467B7160
:10764C00102200214C4834F08BFD4C4B1B781A4611
:10765C0013465B019B1A4A4A1344474A1360474B33
:10766C001B781A4613465B019B1A464A1344424A3E
:10767C009360414B1F229A803F4B1F229A813F4BB4
:10768C001B780133DBB203F00103DAB23B4B1A7007
:10769C0007F154033C220021184634F061FD062307
:1076AC0087F85730FB88A7F85030012387F8523001
:1076BC000123A7F8643007F15003BB66FB88A7F8D9
:1076CC0044307B799BB2A7F848303B68FB6407F1E8
:1076DC004403FB67012387F8803007F108033C2241
:1076EC000021184634F03CFD02233B72224B1968F2
:1076FC0007F15403244A184623F0B9FAC7F8980046
:10770C00D7F89830002B03D0D7F8980024F0C6FF98
:10771C00194B996807F108031C4A184623F0A7FA7D
:10772C00C7F89400D7F89430002B03D0D7F8940006
:10773C0024F0B4FF164A10491648FFF76DFFC7F83E
:10774C009C00D7F89C30082B06D100220A4911481E
:10775C00FFF762FFC7F89C00D7F89C30C7F8903051
:10776C00D7F89030002B03D0D7F8900024F096FF78
:10777C0000BFA037BD4680BD0434002092340020E9
:10778C00143400205434002008340020103400201D
:10779C00182E0020142E002080B485B000AF786025
:1077AC0039607B68B3F5202F05D27B680E4AA2FBAB
:1077BC000323DB0801E04FF6FF73FB607B68002BB3
:1077CC0004D0FB68002B01D10123FB60FB689AB24B
:1077DC00064B9A81054A3B68936000BF1437BD463F
:1077EC005DF8047B704700BFCDCCCCCC182E0020AC
:1077FC0080B582B000AF0A4B1B7801211846FFF709
:10780C000FFF78607B68002B02D0786824F046FF6D
:10781C00002008F077FB00BF0837BD4680BD00BFD5
:10782C00142E002080B582B000AF084B1B78184690
:10783C00FFF7FAFE78607B68002B02D0786824F0A2
:10784C002DFF00BF0837BD4680BD00BF142E0020A1
:10785C0076DF704700BF18467ADF704700BF1846C6
:10786C007CDF704700BF184669DF704700BF1846C1
:10787C0080B400AF034BD3F804351846BD465DF811
:10788C00047B70470010014080B582B000AF786077
:10789C003960786806F07EFE00BF0837BD4680BDB3
:1078AC0090B587B002AF78607B681B78002B0FD146
:1078BC007B685B883B211846FFF7CAFFF860FB68C2
:1078CC00BB60BB68002B1CD0B86824F0E7FE18E046
:1078DC007B681B78012B14D10C4B1B6803F4804381
:1078EC00002B0ED00A4B1B68032B0ADD094CFFF74B
:1078FC00BFFF0346084A00926822214604200BF081
:10790C004DFB00BF1437BD4690BD00BFF02E0020CC
:10791C00F42E002028CC050044CC050080B582B0A4
:10792C0000AF7860786824F0B9FE00BF0837BD4618
:10793C0080BD80B58AB000AF23F026FE78627B6AEA
:10794C003B623B6A002B02D0386A24F0A7FE00236E
:10795C003B6107F110031946012023F045FB7862C7
:10796C007B6AFB61FB69002B02D0F86924F096FE60
:10797C003B1D0C220021184634F0F2FB3B7901220E
:10798C0062F303033B713B79012262F307133B71F2
:10799C007B79012262F301037B710023BB6000231E
:1079AC00BB811023FB813A693B1D19464120FFF72F
:1079BC005BFFB861BB69002B02D0B86924F06EFE86
:1079CC0007F11003184623F09DFB78627B6A7B61FC
:1079DC007B69002B02D0786924F060FE00BF283749
:1079EC00BD4680BD80B586B000AF3B7A012262F304
:1079FC0003033B723B7A012262F307133B7207F1DC
:107A0C000803102216491846FFF72AFF78617B6994
:107A1C003B613B69002B02D0386924F03FFE3B46AA
:107A2C0008220021184634F09BFB78233B80C823A6
:107A3C007B800023BB804FF4C873FB803B46184609
:107A4C00FFF70AFF78617B69FB60FB68002B02D0B3
:107A5C00F86824F023FE00BF1837BD4680BD00BF78
:107A6C0070CC050080B58CB000AF3B1D0822002106
:107A7C00184634F075FB7823BB80C823FB800023A9
:107A8C003B814FF4C8737B8107F10C031C2200214E
:107A9C00184634F065FB3B1DFB6040F6CD433B6163
:107AAC004FF480337B6103233B7600237B830023DD
:107ABC003B770B4B3B620B4B7B6207F10C0318467D
:107ACC0023F06EFFF862FB6ABB62BB6A002B02D02C
:107ADC00B86A24F0E3FD00BF3037BD4680BD00BF5F
:107AEC00AD7802002979020080B400AF0623184655
:107AFC00BD465DF8047B704780B400AF034BD3F8F0
:107B0C0004351846BD465DF8047B704700100140F3
:107B1C0080B483B000AF4FF0A0430E4AC3F81825D1
:107B2C004FF0A0430B4AC3F80C25EFF310837B6096
:107B3C0072B64DF6AD6C00E030BF074B1B78DBB274
:107B4C00002BF9D100BF00BF0C37BD465DF8047B9C
:107B5C00704700BF004040C0302E002090B58DB063
:107B6C0006AFF860B9607A60FB6844F20202934297
:107B7C0051D0FB6844F20202934200F29080FB6801
:107B8C0044F20102934267D0FB6844F20102934233
:107B9C0000F28580FB68012B05D0FB6841F20102E5
:107BAC0093421DD07BE0524B1B6803F48043002BA7
:107BBC0000F08E804F4B1B68002B40F389804E4C9D
:107BCC00FFF79AFF02467B680293BB6801934B4B0D
:107BDC00009313466022214601200BF0DFF977E079
:107BEC00434B1B6803F48043002B73D0414B1B6841
:107BFC00002B6FDD404CFFF77FFF02467B68029342
:107C0C00BB6801933E4B009313466322214601202F
:107C1C000BF0C4F95EE07B687B61354B1B6803F4A9
:107C2C008043002B58D0334B1B68002B54DD324C57
:107C3C00FFF762FF01467B695B687A691268039201
:107C4C000293BB6801932F4B00930B46692221468C
:107C5C0001200BF0A3F93FE07B683B61244B1B68D0
:107C6C0003F48043002B39D0224B1B68002B35DDED
:107C7C00214CFFF741FF3B699B683A6952683969AF
:107C8C00096804910392BA68029201931E4B009307
:107C9C0003467322214601200BF080F91EE0144BA1
:107CAC001B6803F48043002B1AD0124B1B68002B6B
:107CBC0016DD114CFFF720FF0246BB680193134BF6
:107CCC00009313467B22214601200BF067F907E055
:107CDC0000BF06E000BF04E000BF02E000BF00E010
:107CEC0000BFFFF715FF00BF1C37BD4690BD00BF9E
:107CFC00F02E0020F42E0020A4CC0500B8CC0500FA
:107D0C00D4CC0500F8CC050018CD05003CCD050001
:107D1C0080B584B000AF78600023BB60064BFB607D
:107D2C0007F108031A46796844F20200FFF716FFC0
:107D3C0000BF1037BD4680BD58CD050080B400AFE4
:107D4C00034BD3F804351846BD465DF8047B7047E9
:107D5C0000100140B0B5A2B004AF0346B9607A6020
:107D6C00FB81244B1B6803F48043002B0ED0224B69
:107D7C001B68032B0ADD214CFFF7E0FF0346204A6A
:107D8C0000923822214604200BF008F9BB68596890
:107D9C00BB681B8901331A4607F11403184634F0EB
:107DAC00A9F9144B1B6803F48043002B1DD0124B14
:107DBC001B68032B19DD114DFFF7C0FF044607F1BB
:107DCC001403184634F066F90246BB681B89194641
:107DDC0007F114030393029101920A4B009323467B
:107DEC003B22294604200BF0D9F80023184678379B
:107DFC00BD46B0BDF02E0020F42E00208BCD05002A
:107E0C0098CD0500A8CD050090B591B004AF034600
:107E1C00B9607A60FB81BB685968BB681B891A46DC
:107E2C0007F12803184634F065F9314B1B6803F44D
:107E3C008043002B12D02F4B1B68032B0EDD2E4CD6
:107E4C00FFF77CFF03463A8D798D029101922B4A04
:107E5C0000929922214604200BF0A0F807F124038C
:107E6C0018461AF03FFDBB8CFB857B8DFA8D9A4230
:107E7C003AD03B8D4FF6FF72934203D03B8DFA8D77
:107E8C009A4232D11A4B1B6803F48043002B0ED05C
:107E9C00184B1B68032B0ADD174CFFF74FFF0346EB
:107EAC00174A0092A622214604200BF077F87B8D0E
:107EBC003B84FB8D7B84CE233B8259237B8207F151
:107ECC0020037B6104233B830023BB760223FB76D8
:107EDC0006F07CFB0346FB6107F11002FB89B968D5
:107EEC00184616F055FE00E000BF3437BD4690BD75
:107EFC00F02E0020F42E00208BCD0500B4CD050013
:107F0C00D4CD050090B58DB004AF0346B9607A604E
:107F1C00FB81BB685968BB681B891A4607F11803BB
:107F2C00184634F0E7F807F1140318461AF0DAFC97
:107F3C00BB8AFB833B8BFA8B9A4218D10E4B1B6886
:107F4C0003F48043002B12D00C4B1B68032B0EDD6B
:107F5C000B4CFFF7F3FE03463A8B798B029101929F
:107F6C00084A0092C322214604200BF017F800BFE8
:107F7C002437BD4690BD00BFF02E0020F42E00200B
:107F8C008BCD0500B4CD050090B587B002AF03468C
:107F9C00B9607A60FB810C4B1B6803F48043002BA7
:107FAC000ED00A4B1B68032B0ADD094CFFF7C6FEEB
:107FBC000346084A0092CB22214604200AF0EEFF29
:107FCC0000BF1437BD4690BDF02E0020F42E0020CB
:107FDC008BCD0500E4CD050090B587B002AF03460C
:107FEC00B9607A60FB810C4B1B6803F48043002B57
:107FFC000ED00A4B1B68032B0ADD094CFFF79EFEC3
:10800C000346084A0092CD22214604200AF0C6FFFE
:10801C0000BF1437BD4690BDF02E0020F42E00207A
:10802C008BCD050000CE0500B0B58AB004AF7860EA
:10803C003960CA233B8159237B813B68FB603868DC
:10804C0034F028F803469BB201339BB23B820023E9
:10805C00BB740223FB7406F0B9FA03467B61154B23
:10806C001B6803F48043002B17D0134B1B68032BA6
:10807C0013DD124DFFF762FE0446386834F00AF83F
:10808C0002463B68029301920D4B009323464FF43A
:10809C00BA72294604200AF081FF7B681B8807F11D
:1080AC0008021146184616F029FD034618461837E3
:1080BC00BD46B0BDF02E0020F42E00208BCD050067
:1080CC0044CE050080B400AF034BD3F804351846FA
:1080DC00BD465DF8047B70470010014090B585B03B
:1080EC0002AF78600C4B1B6803F48043002B0ED05E
:1080FC000A4B1B68032B0ADD094CFFF7E3FF034611
:10810C00084A00926A22214604200AF047FF00BF69
:10811C000C37BD4690BD00BFF02E0020F42E002081
:10812C00C7CE0500D8CE050090B587B002AFF86079
:10813C00B9601346FB710C4B1B6803F48043002B96
:10814C000ED00A4B1B68032B0ADD094CFFF7BAFF54
:10815C000346084A00927222214604200AF01EFFB0
:10816C0000BF1437BD4690BDF02E0020F42E002029
:10817C00C7CE0500F0CE050090B587B002AFF86011
:10818C00B9607A600C4B1B6803F48043002B0ED053
:10819C000A4B1B68032B0ADD094CFFF793FF0346C0
:1081AC00084A00928B22214604200AF0F7FE00BFF9
:1081BC001437BD4690BD00BFF02E0020F42E0020D9
:1081CC00C7CE050008CF050090B587B002AFF860A8
:1081DC00B9607A600C4B1B6803F48043002B0ED003
:1081EC000A4B1B68032B0ADD094CFFF76BFF034698
:1081FC00084A00929922214604200AF0CFFE00BFC3
:10820C001437BD4690BD00BFF02E0020F42E002088
:10821C00C7CE05001CCF050090B585B002AF7860C5
:10822C0039600C4B1B6803F48043002B0ED00A4BB7
:10823C001B68032B0ADD094CFFF744FF0346084A71
:10824C000092A622214604200AF0A8FE00BF0C379B
:10825C00BD4690BDF02E0020F42E0020C7CE0500A8
:10826C0038CF050080B500AF6422034900201FF011
:10827C004DFA00BF80BD00BF362E002080B59AB0ED
:10828C0000AF0C4A3B1D1068516803C31189927AE8
:10829C0019809A7007F10F0359220021184633F008
:1082AC005FFF05490548FFF7BFFE034618466837D0
:1082BC00BD4680BD48CF0500362E0020342E002050
:1082CC0090B58DB002AF244B1B6803F48043002B98
:1082DC000FD0224B1B68032B0BDD214CFFF7F2FE5A
:1082EC000346204A00924FF4C972214604200AF03A
:1082FC0055FE1D4B3B620023FB833B1D00221A6085
:10830C005A609A60DA601A615A615923BB800A2359
:10831C00FB80FB8B3B81154BFB6005233B613B6A70
:10832C007B613A6A3B1D1146184616F0B7FA786223
:10833C007B6A002B0BD1FB8B0D493A6A41F8232049
:10834C003B6A1B88184616F03FFE03467B627B6A2D
:10835C0018462C37BD4690BDF02E0020F42E002080
:10836C00C7CE05003CD00500342E00204CCE0500B5
:10837C009434002090B58FB004AF78600B467B80AE
:10838C00786817F057F907F1200318461AF0AAFA83
:10839C003B8CFB847B88BB83FB8CFB83CD23BB8119
:1083AC005923FB8107F11C033B610423BB8200238F
:1083BC00BB750223FB7506F009F90346BB61144B30
:1083CC001B6803F48043002B13D0124B1B68032B48
:1083DC000FDD114CFFF776FE0346BA8BF98B029139
:1083EC0001920E4A009240F2C512214604200AF076
:1083FC00D5FD0B4B1B8807F10C021146184616F0E5
:10840C007DFBFF2017F016F900BF2C37BD4690BD41
:10841C00F02E0020F42E0020C7CE050058D0050009
:10842C00342E002080B483B000AF78604FF0A043AE
:10843C0018460C37BD465DF8047B704780B584B098
:10844C0000AF7860084611461A460346FB700B468F
:10845C00BB7013467B703B1D1846FFF7E3FFF860BB
:10846C00FA78BB785B001A437B789B001A433B7EFF
:10847C001B0242EA03013B7F1B047A681943FB6829
:10848C0002F5E07243F8221000BF1037BD4680BDE4
:10849C0080B584B002AF78600B46FB70FB7800228D
:1084AC00019200220092002200217868FFF7C6FF9B
:1084BC0000BF0837BD4680BD80B400AF034BD3F876
:1084CC0004351846BD465DF8047B7047001001402A
:1084DC0080B500AF00211320FFF7DAFF31F084FFE5
:1084EC0031F096FF012031F0EBFF0346B3F1FF3F73
:1084FC0000D1FEE731F0B0FF094832F0A5F844F2A4
:10850C00480032F00BFA44F2480032F017FA6420BB
:10851C0032F06FFC4FF6E85032F088FD00BF80BDA2
:10852C00A02E002090B58BB002AF9A4B1B68013384
:10853C00984A1360984B1B6803F48043002B12D0AD
:10854C00964B1B68032B0EDD954CFFF7B5FF0246CF
:10855C00904B1B680193934B00931346B322214617
:10856C0004200AF01BFD8B4B1B68032B02DD894B8F
:10857C0001221A60874B1B68184600F05BF98022B9
:10858C0000210F2032F0AEFB002287490C2032F084
:10859C00E4F9012200210C2032F0FEF9022032F025
:1085AC00EBFC824B1B680133804A13607A4B1B68CF
:1085BC0003F48043002B12D0784B1B68032B0EDD89
:1085CC00774CFFF779FF0246784B1B680193784B89
:1085DC0000931346CC22214604200AF0DFFC00BF96
:1085EC0000210F2032F0F8FA0346724A1360714BE7
:1085FC001A68714B1340002BF2D0664B1B6818465F
:10860C0000F068F96B4B1B6803F48043002B00F0FF
:10861C00A2804FF4804200210F2032F063FB002136
:10862C00102032F0D9FA034603F07F03FB61FB699B
:10863C00142B06D8FB699BB2002219465F4832F016
:10864C00CBF95E4B00229A700A225D495B4833F0ED
:10865C00B7FD0346002B78D15A4B1B680133594A9E
:10866C00136032F0FCF9B86132F002FA786132F042
:10867C00C5F90346184633F023FC40A3D3E9002385
:10868C0033F060FB02460B461046194633F044FCAF
:10869C0003463B613B1D19464B4800F0A5F83B4691
:1086AC0019464A4800F0A0F87A69BB69D31AFB60F6
:1086BC003A687B68D31ABB60FB6807EE903AB8EE59
:1086CC00E77ABB6807EE903AF8EEE76AB7EE006A15
:1086DC00D7ED047A76EE677A66EEA77A77EE677A4C
:1086EC00B0EE007AC7EE876A16EE900A33F0FAFB0A
:1086FC0024A3D3E9002333F025FB02460B4634496F
:10870C00C1E90023324BD3E9000120A3D3E90023B4
:10871C0033F018FB02460B462E49C1E900232D4BC2
:10872C00D3E900012C4BD3E9002333F00BFB0246B9
:10873C000B4610461946294BD3E9002333F0FEFAB9
:10874C0002460B462649C1E90023124B1B6818460A
:10875C0000F048F906E0234A00210F2032F0C2FA5B
:10876C0032F0A4FC4FF4FA7031F09EFE00BF1846B4
:10877C002437BD4690BD00BFAFF30080143BB1134E
:10878C003BB103BEFA48CE3B1835B13D0000001397
:10879C0019DDB141D8340020F02E0020F42E002039
:1087AC00B7D00500C4D00500AC2E0020D03400207A
:1087BC00D0D00500B034002000D027249C340020F9
:1087CC00B82E0020D4340020A6340020AA34002077
:1087DC00B8340020C8340020D02E0020D82E002021
:1087EC00C03400200090272480B485B000AF78609E
:1087FC0039603B6800221A600023FB6010E03B6884
:10880C001B68FA6879680A4412781146FA68D20033
:10881C0001FA02F21A443B681A60FB680133FB60F0
:10882C00FB68032BEBDD00BF00BF1437BD465DF8C2
:10883C00047B704780B483B000AF78607B68012BF9
:10884C0010D11F4B50225A711D4B55229A711D4B42
:10885C005022DA711B4B55221A721B4B1A78184B8B
:10886C009A7026E07B68022B10D1154B43225A716B
:10887C00134B48229A71134B4322DA71114B482245
:10888C001A72124B1A780E4B9A7012E07B68032BFB
:10889C000FD10B4B42225A71094B41229A71094B51
:1088AC004222DA71074B41221A72094B1A78044B97
:1088BC009A7000BF18460C37BD465DF8047B7047B4
:1088CC00AC2E0020B82E00209834002099340020C3
:1088DC009A34002080B483B000AF78607B68012BA1
:1088EC0006D13D4B1B780133DAB23B4B1A706CE06E
:1088FC007B68022B06D1394B1B780133DAB2374B2C
:10890C001A7062E07B68032B06D1354B1B78013360
:10891C00DAB2334B1A7058E07B68042B06D12E4B1D
:10892C001B780133DAB22C4B1A704EE07B68052BA6
:10893C0006D12A4B1B780133DAB2284B1A7044E06B
:10894C007B68062B06D1264B1B780133DAB2244BFD
:10895C001A703AE07B68072B06D11F4B1B7801334A
:10896C00DAB21D4B1A7030E07B68082B06D11B4B1A
:10897C001B780133DAB2194B1A7026E07B68092B8D
:10898C0006D1174B1B780133DAB2154B1A701CE069
:10899C007B680A2B06D1104B1B780133DAB20E4BD5
:1089AC001A7012E07B680B2B06D10C4B1B78013331
:1089BC00DAB20A4B1A7008E07B680C2B05D1084B15
:1089CC001B780133DAB2064B1A7000BF18460C370D
:1089DC00BD465DF8047B7047983400209934002024
:1089EC009A340020B0B586B004AF7860164B1B6883
:1089FC0003F48043002B22D0144B1B68032B1EDD89
:108A0C00134DFFF759FD0446124BD3E900014FF00B
:108A1C000002114B33F096F902460B4610461946EC
:108A2C0033F028FA034602937B6801930B4B0093B7
:108A3C00234640F2FB12294604200AF0AFFA00BF8D
:108A4C000837BD46B0BD00BFF02E0020F42E00202C
:108A5C00B7D00500C034002000408F40F0D0050096
:108A6C0090B482B000AF7860064A7B6814461868F0
:108A7C0059689A68DB680FC400BF0837BD4690BCC4
:108A8C00704700BFDC34002080B500AF08221149CC
:108A9C00114833F02FFB08221049114833F02AFB00
:108AAC000D4B9B795BB203F00F035BB243F04003B9
:108ABC005BB2DAB2084B9A71074B1B7A5BB203F0CC
:108ACC003F035BB263F07F035BB2DAB2024B1A7204
:108ADC0000BF80BD60000010DC340020A40000103A
:108AEC00E434002080B400AF024B1846BD465DF85C
:108AFC00047B7047DC34002080B483B000AF0023CB
:108B0C007B6013E00F4A7B68DB00134400225A8021
:108B1C000C4A7B68DB00134400225A60094A7B68CC
:108B2C00002102F833107B6801337B607B681F2BBC
:108B3C00E8D9054B00221A6000BF0C37BD465DF822
:108B4C00047B7047EC340020EC35002080B485B0F9
:108B5C0000AF03463960FB801B4B1B68FB60002396
:108B6C00BB6026E0FB685A1EFA60002B01D11F2364
:108B7C00FB60164AFB6812F8333083F00103DBB25A
:108B8C00002B01D0002318E0104AFB68DB001344D3
:108B9C005B88FA889A4209D10C4AFB68DB001344C3
:108BAC005B683A689A4201D1012306E0BB68013345
:108BBC00BB60BB681F2BD5D9002318461437BD46A4
:108BCC005DF8047B704700BFEC350020EC340020CE
:108BDC0080B483B000AF03463960FB80124B1B6836
:108BEC00124ADB001344FA885A800F4B1B680F4A59
:108BFC00DB0013443A685A600B4B1B680B4A01218B
:108C0C0002F83310084B1B680133074A1360064BFC
:108C1C001B68202B02D1044B00221A6000BF0C37BA
:108C2C00BD465DF8047B7047EC350020EC34002029
:108C3C0080B400AF034BD3F804351846BD465DF83D
:108C4C00047B70470010014080B483B000AF7860A3
:108C5C007B68043318460C37BD465DF8047B7047BF
:108C6C0080B483B000AF78607B68013318460C3752
:108C7C00BD465DF8047B704780B483B000AF78606C
:108C8C007B681B7803F08003002BCCBF01230023EF
:108C9C00DBB218460C37BD465DF8047B704780B4D8
:108CAC0083B000AF78600B46FB707B681B7803F0D9
:108CBC007F03DAB27B681A707B681B785AB2FB7838
:108CCC00DB015BB213435BB2DAB27B681A7000BF94
:108CDC000C37BD465DF8047B704780B483B000AFA1
:108CEC0078607B681B789B011BB203F4FE531AB2AD
:108CFC007B685B789B08DBB21BB213431BB29BB245
:108D0C0018460C37BD465DF8047B704780B483B0C1
:108D1C0000AF78600B467B807B681B7823F07F0369
:108D2C00DAB27B681A707B681B785AB27B889B0915
:108D3C009BB25BB203F07F035BB213435BB2DAB25C
:108D4C007B681A707B685B7803F00303DAB27B688C
:108D5C005A707B685B785AB27B889B005BB213437A
:108D6C005BB2DAB27B685A7000BF0C37BD465DF857
:108D7C00047B704780B483B000AF78607B689B78CD
:108D8C001A067B68DB781B041A437B681B791B0271
:108D9C0013437A685279134318460C37BD465DF875
:108DAC00047B704780B483B000AF786039603B6857
:108DBC001B0EDAB27B689A703B681B0CDAB27B68CC
:108DCC00DA703B681B0ADAB27B681A713B68DAB25C
:108DDC007B685A7100BF0C37BD465DF8047B704749
:108DEC0080B483B000AF78607B681B7803F04003DD
:108DFC00002BCCBF01230023DBB218460C37BD4639
:108E0C005DF8047B704780B483B000AF78600B468C
:108E1C00FB707B681B7823F04003DAB27B681A7016
:108E2C007B681B785AB2FB789B015BB203F0400362
:108E3C005BB213435BB2DAB27B681A7000BF0C37BB
:108E4C00BD465DF8047B704780B483B000AF78609A
:108E5C007B681B7803F03F03DBB218460C37BD462A
:108E6C005DF8047B704780B483B000AF78600B462C
:108E7C00FB707B681B7823F03F03DAB27B681A70B7
:108E8C007B681B785AB297F9033003F03F035BB24F
:108E9C0013435BB2DAB27B681A7000BF0C37BD4665
:108EAC005DF8047B704780B483B000AF78607B685A
:108EBC001B7803F08003002BCCBF01230023DBB213
:108ECC0018460C37BD465DF8047B704780B483B000
:108EDC0000AF78600B46FB707B681B7803F07F0358
:108EEC00DAB27B681A707B681B785AB2FB78DB01AC
:108EFC005BB213435BB2DAB27B681A7000BF0C37FB
:108F0C00BD465DF8047B704780B483B000AF7860D9
:108F1C007B681B7803F07F03DBB218460C37BD4629
:108F2C005DF8047B704780B483B000AF78600B466B
:108F3C00FB707B681B7823F07F03DAB27B681A70B6
:108F4C007B681B785AB297F9033003F07F035BB24E
:108F5C0013435BB2DAB27B681A7000BF0C37BD46A4
:108F6C005DF8047B704780B483B000AF78607B6899
:108F7C005B7803F08003002BCCBF01230023DBB212
:108F8C0018460C37BD465DF8047B704780B483B03F
:108F9C0000AF78600B46FB707B685B7803F07F0357
:108FAC00DAB27B685A707B685B785AB2FB78DB016B
:108FBC005BB213435BB2DAB27B685A7000BF0C37FA
:108FCC00BD465DF8047B704780B483B000AF786019
:108FDC007B685B789B011BB203F4FE531AB27B686F
:108FEC009B789B08DBB21BB213431BB29BB2184697
:108FFC000C37BD465DF8047B704780B483B000AF7E
:10900C0078600B467B807B685B7823F07F03DAB259
:10901C007B685A707B685B785AB27B889B099BB2E1
:10902C005BB203F07F035BB213435BB2DAB27B68D3
:10903C005A707B689B7803F00303DAB27B689A70F2
:10904C007B689B785AB27B889B005BB213435BB204
:10905C00DAB27B689A7000BF0C37BD465DF8047BB2
:10906C00704780B483B000AF78607B689B78DB007E
:10907C005BB203F018035AB27B68DB785B09DBB296
:10908C005BB213435BB2DBB218460C37BD465DF8DE
:10909C00047B704780B483B000AF78600B46FB70E4
:1090AC007B689B7823F00303DAB27B689A707B6849
:1090BC009B785AB2FB78DB08DBB25BB203F003039C
:1090CC005BB213435BB2DAB27B689A707B68DB7875
:1090DC0003F01F03DAB27B68DA707B68DB785AB274
:1090EC00FB785B015BB213435BB2DAB27B68DA707C
:1090FC0000BF0C37BD465DF8047B704780B483B06D
:10910C0000AF78607B68DB7803F01F03DBB2184696
:10911C000C37BD465DF8047B704780B483B000AF5C
:10912C0078600B46FB707B68DB7823F01F03DAB2A8
:10913C007B68DA707B68DB785AB297F9033003F0FE
:10914C001F035BB213435BB2DAB27B68DA7000BF09
:10915C000C37BD465DF8047B704780B483B000AF1C
:10916C0078600B467B807B68C3F30C027B889A4249
:10917C0009D27A887B68C3F30C03D21A7B68134438
:10918C00A3F5005306E07A887B68C3F30C03D21A6C
:10919C007B68134418460C37BD465DF8047B70475A
:1091AC002DE9B04F86B000AF786139611346FB8171
:1091BC007B6900229A4693464FEA1A254FEA0A64C5
:1091CC00FB8919463869FFF7C8FF03460022984609
:1091DC00914614EB08033B6045EB09037B60D7E930
:1091EC000023104619461837BD46BDE8B08F80B431
:1091FC0000AF00231846BD465DF8047B704780B570
:10920C0084B000AF78607B681B7883F00103DBB21D
:10921C00002B04D07B46FB60F868FEF779FD7B6879
:10922C005B7A0133012202FA03F3013B1846103733
:10923C00BD4680BD80B58EB000AF0346FB800B46AB
:10924C007B7113463B7107F10C032C22002118464D
:10925C0032F086FF0F233B73FB883B827B7903F054
:10926C000103DAB2BB7C62F30003BB743B79FB7481
:10927C0007F10C03184602F0C9F900BF3837BD4698
:10928C0080BD80B584B000AF78607B681B78002B04
:10929C000BD07B68988A7B6899697B68DA697B68F4
:1092AC00DB880BF0E5FEF86009E07B68988A7B6848
:1092BC0099697B68DB691A460BF0C8FEF860FB689D
:1092CC00002B0BD07B68988A7B68DB69DBB203F0E0
:1092DC000103DBB200221946FFF7ACFFFB6818460E
:1092EC001037BD4680BD80B58EB000AF78600B46A0
:1092FC00FB7007F10C032C220021184632F030FFD2
:10930C0010233B737B683B61FB783B7507F10C03C7
:10931C00184602F07BF900BF3837BD4680BD00000F
:10932C0080B483B000AF0346FB71074B5A68064B01
:10933C009B68F97901FB03F3134418460C37BD46BF
:10934C005DF8047B704700BFF035002080B483B01B
:10935C0000AF0346FB71074BDA68064B1B69F979C2
:10936C0001FB03F3134418460C37BD465DF8047B30
:10937C00704700BFF035002080B487B000AF0146C5
:10938C00C7E900230B46FB8100237B6119E0124ADD
:10939C007B691B0113441B88FA899A420ED10E4A31
:1093AC007B691B0113440833D3E90023D7E900017F
:1093BC00994208BF904201D1012306E07B69013339
:1093CC007B617B69072BE2D9002318461C37BD460D
:1093DC005DF8047B704700BFD037002080B586B0A5
:1093EC0000AF78607B68D8697B6899697B68DB889B
:1093FC001A46FFF7D5FEC7E904010C4B1B685A1C33
:10940C000A490A6003F007031B01094A1344FB6075
:10941C007B689A8AFB681A80F968D7E90423C1E94A
:10942C00022300BF1837BD4680BD00BFC8370020DF
:10943C00D037002080B588B000AFF8600B467A605A
:10944C00FB72FB7A022B07D0FB7A012B04D07B46F4
:10945C007B617869FEF75CFC7B68B3F5C07F04D94F
:10946C007B463B613869FEF753FC0023FB6100230C
:10947C00BB611CE03E49BA691346DB009B1A1B0119
:10948C000B4448331B78002B0ED1BA691346DB0012
:10949C009B1A1B01364A1344FB6178680FF091FC50
:1094AC000246FB69DA6605E0BB690133BB61BB6947
:1094BC00032BDFD9FB69002B03D0FB69DB6E002B80
:1094CC0001D1002350E0FB693022F968184632F0D4
:1094DC0011FEFB690022DA647B689AB2FB69A3F87F
:1094EC004A20FB7A012B23D1224B1A7DFB6983F88E
:1094FC005120FB69002283F85220FB69002283F87B
:10950C005320FB69002283F85020FB689A6AFB69A0
:10951C005A65FB690022A3F85820FB696FF0010221
:10952C009A62FB69144A9A63FB69FA691A6413E03C
:10953C00FB696FF001029A62FB69002283F86820D4
:10954C00FB690E4A9A65FB69FA691A66FB690C4A53
:10955C009A63FB69FA691A64012004F085F8FB69C7
:10956C00FA7A83F84820FB6918462037BD4680BD3F
:10957C0008360020F035002089B1020051B10200FC
:10958C00B9B1020080B582B000AF78607B68DB6E49
:10959C0018460FF022FC7B683033184605F052FD5C
:1095AC007B6893F84830022B04D17B685033184603
:1095BC0005F048FD70220021786832F0D1FD7B68FF
:1095CC00002283F84820002004F04EF800BF083732
:1095DC00BD4680BD90B589B004AF78600B46FB707A
:1095EC007B68002B04D17B46FB60F868FEF790FB90
:1095FC007B689A697B68DB8819461046FFF7ADFDDE
:10960C00B8607B6893F84830022B0DD17B685B788F
:10961C0003F00203002B07D07B68988A7B68DB88F9
:10962C00002219462FF078FD7B6893F84830022B06
:10963C0002D17868FFF7D2FE7B685B6DFA78114631
:10964C001846FFF750FE7868FFF79CFF104B1B681D
:10965C0003F00403002B17D00E4B1B68032B13DDF8
:10966C000D4CFFF7E5FA02467B6893F84830194633
:10967C00FB7802930191094B0093134640F2F312CD
:10968C002146042009F08AFC00BF1437BD4690BD6A
:10969C00F02E0020F42E00207ED105008CD1050088
:1096AC0080B58EB000AF78607B6893F84830012BA2
:1096BC0004D07B467B63786BFEF72AFB01233B725D
:1096CC007B685B6DFB6005F0D1FD03463B6107F1E8
:1096DC000803184601F09AFF7868FFF753FF00BFA4
:1096EC003837BD4680BD000090B585B000AF7860BE
:1096FC007B6893F84830022B04D07B46FB60F868FB
:10970C00FEF706FB0C4B5B7D1846FFF709FEB860B5
:10971C007B6803F1500405F0A9FD0246BB681344B5
:10972C001946204605F0B8FC7B68012283F86820B6
:10973C0000BF1437BD4690BDF035002090B585B004
:10974C0000AF78607B6893F84830022B04D07B46DE
:10975C00FB60F868FEF7DCFA094B1B68BB607B68A2
:10976C0003F1300405F082FD0246BB681344194630
:10977C00204605F091FC00BF1437BD4690BD00BFDC
:10978C00F035002080B584B000AF78607B6893F82A
:10979C004830012B04D07B46FB60F868FEF7B8FA22
:1097AC0005F064FDB8607B681B7B012B06D17B68E0
:1097BC009B7D1846FFF7CAFD034603E00020FFF728
:1097CC00C5FD0346BA681344BB607B683033B96887
:1097DC00184605F061FC00BF1037BD4680BD80B552
:1097EC0082B000AF786039607B68DB7D002B06D0DF
:1097FC007B68DB7819463868FFF795FB0BE07B68D4
:10980C00DB7819463868FFF7FEFA7B681B79194636
:10981C003868FFF728FB7B681B7819463868FFF718
:10982C0055FB7B681B78002B1CD07B689B78082B26
:10983C000CBF01230023DBB219463868FFF7A6FBE7
:10984C007B68DB8819463868FFF7D7FB7B681B7A87
:10985C0019463868FFF71EFC7B685B7A1946386836
:10986C00FFF75BFC00BF0837BD4680BD80B586B0F6
:10987C0000AFF860B9607A603B60FB681B78002B26
:10988C0001D0042300E001237B617A697B681A44D0
:10989C00BB689A60FB6803F10C02BB681A60FB683A
:1098AC009A6ABB685A60FB68DA6ABB68DA60BB68A4
:1098BC0000221A74B86807F0FBFE38613B69002B74
:1098CC0005D1BB685A697B691A443B681A603B69CD
:1098DC0018461837BD4680BD90B593B002AF78607E
:1098EC0039600023FB637B681B7B012B74D13D4BE0
:1098FC001B6803F00403002B0FD03B4B1B68032B9E
:10990C000BDD3A4CFFF794F90346394A009240F2CA
:10991C0063222146042009F041FB07F130030B229E
:10992C000021184632F01CFC7B68DA8807F1300302
:10993C0011461846FFF7EAF907F130033968184663
:10994C00FFF730FA7B685B78022B0CBF01230023F6
:10995C00DBB21A4607F1300311461846FFF79FF9A0
:10996C0006233B6101233B767B689B8A7B83002328
:10997C00FB6100233B7207F13003FB607B681B6AC1
:10998C003B6200233B757B68DB6ABB627B685B7860
:10999C00022B0AD107F12C0207F12E0311461846AF
:1099AC001AF0F8FCFB8DFB8202E07B68DB89FB8202
:1099BC007B689B7D002B03D1002387F8243003E0C8
:1099CC000C4B5B7D87F8243007F108036FF0010125
:1099DC00184601F04FFDF863FB6B18464437BD4643
:1099EC0090BD00BFF02E0020F42E00207ED105008B
:1099FC00B0D10500F035002080B582B000AF7860A2
:109A0C007B681B7B012B04D101217868FFF7E2FDF9
:109A1C0002E07868FFF744FE00BF0837BD4680BD02
:109A2C0080B582B000AF78607B6893F85130002B22
:109A3C0011D07B6893F85130013BDAB27B6883F824
:109A4C0051207B68002283F85020064B1B68184677
:109A5C0007F014F802E07868FFF7CEFF00BF083774
:109A6C00BD4680BD5038002080B485B000AF786012
:109A7C000B467B800023FB6046E02849FA681346BE
:109A8C00DB009B1A1B010B4448331B78012B38D18C
:109A9C002249FA681346DB009B1A1B010B44143352
:109AAC001A887B68DB899A422BD11C49FA681346C9
:109ABC00DB009B1A1B010B4406331B887A889A42E5
:109ACC001FD11649FA681346DB009B1A1B010B4485
:109ADC0058331B88002B0CD01049FA681346DB0056
:109AEC009B1A1B010B4458331A887B689B8A9A4239
:109AFC0007D1FA681346DB009B1A1B01074A134473
:109B0C0006E0FB680133FB60FB68032BB5D900232F
:109B1C0018461437BD465DF8047B704708360020A4
:109B2C0080B485B000AF78600023FB6022E016495A
:109B3C00FA681346DB009B1A1B010B4448331B7855
:109B4C00022B14D11049FA681346DB009B1A1B0137
:109B5C000B4414331A887B689B8A9A4207D1FA68A3
:109B6C001346DB009B1A1B01074A134406E0FB68F3
:109B7C000133FB60FB68032BD9D90023184614373B
:109B8C00BD465DF8047B70470836002080B584B074
:109B9C0000AF0346FB710023FB6019E01049FA6823
:109BAC001346DB009B1A1B010B4448331B78022B1A
:109BBC000BD1FA681346DB009B1A1B01084A1344AD
:109BCC00FA7911461846FFF705FDFB680133FB6077
:109BDC00FB68032BE2D900BF00BF1037BD4680BD28
:109BEC000836002090B58DB002AF78607B68D869DC
:109BFC007B6899697B68DB881A46FFF7D1FAC7E95D
:109C0C0008017B68998AD7E908230846FFF7B4FB5B
:109C1C000346002B01D00023DEE07868FFF780FFBD
:109C2C00F861FB69002B44D0FB69D869FB69996921
:109C3C00FB69DB881A46FFF7B3FAC7E90401D7E9D9
:109C4C000823D7E90401904271EB030306D20521E6
:109C5C00F869FFF7BFFC0023FB612AE0D7E9080194
:109C6C00D7E90423904271EB030320D2FFF7BFFA2C
:109C7C000346002B19D05A4B1B6803F00403002B2E
:109C8C0013D0584B1B68012B0FDD574CFEF7D0FF40
:109C9C0002467B68DB880193544B0093134640F2D9
:109CAC0037322146022009F079F9002394E0FB6950
:109CBC0092E07B68988A7B6899697B68DA697B6833
:109CCC00DB880BF05FFA0346002B19D07B68988A6F
:109CDC007B6899697B68DA697B68DB880BF09CFA96
:109CEC000346002B0AD07868FFF789FA0346194619
:109CFC007868FFF7F1FD7868FFF7C3FA00236BE093
:109D0C007B68998AD7E9082308462FF03DFA034669
:109D1C00002B09D07868FFF772FA03461946786869
:109D2C00FFF7DAFD002357E0FFF761FA0346002B3B
:109D3C0002D00520FFF72AFF7B685B7A5A1C7B68F0
:109D4C00DB7D002B01D0082300E00C2302FB03F386
:109D5C00FB607B68DB7D002B02D04FF4807201E04E
:109D6C004FF4C072FB689A421AD21D4B1B6803F069
:109D7C000403002B12D01B4B1B68002B0EDD1A4C5E
:109D8C00FEF756FF0246FB680193194B00931346EE
:109D9C0040F27F322146012009F000F900231BE03C
:109DAC00FA6802217868FFF745FBF861FB69002B24
:109DBC0011D1FFF71CFA0346002B04D07B46BB6085
:109DCC00B868FDF7A5FF00217868FFF785FD022133
:109DDC000020FFF788FAFB6918462C37BD4690BD6A
:109DEC00F02E0020F42E00207ED10500C0D10500FD
:109DFC00ECD10500B0B58AB002AFF860B9607A60FA
:109E0C003B607868FFF7EEFEF861FB69002B00F011
:109E1C00D5806D4B1B6803F00403002B13D06B4BE8
:109E2C001B68032B0FDD6A4CFEF702FF02467B68B2
:109E3C001B7A0193674B0093134640F2A3322146E1
:109E4C00042009F0ABF8FFF7D2F9034683F00103C5
:109E5C00DBB2002B0ED0F869FFF770FCFB691B7BA3
:109E6C00012B07D1FB6993F86830002B02D1F869FC
:109E7C00FFF73AFCFB69DA6C7B681B7A1946012305
:109E8C008B401340002B40F09B80FB69DA6C7B68A5
:109E9C001B7A194601238B401A43FB69DA64BB68B1
:109EAC00043BBB617B681B7A1A467B68DB7D002B0D
:109EBC0001D0082300E00C2302FB03F37B617B68D9
:109ECC001A7AFB695B7A9A4209D17B699AB2BB69AF
:109EDC009BB213449AB2FB69A3F84A200EE07B684C
:109EEC00DB7D002B01D0082200E00C22BB699A42DA
:109EFC0004D00421F869FFF76DFB62E0FB699A69F5
:109F0C007B689B699A420BD2FA697B6802F10C045C
:109F1C0003F10C050FCD0FC495E8030084E8030092
:109F2C00FB69DA6E7B69D418F868FEF78DFE034680
:109F3C00BA691946204632F0DDF87B685B7803F08D
:109F4C000203002B06D0BB68D9B201237A68F868EB
:109F5C002EF046FFFB69DC6CFB691846FFF74FF9E6
:109F6C0003469C422DD1FFF742F9034683F00103CF
:109F7C00DBB2002B06D0FA69FB69DB6C1946104684
:109F8C00FFF7AAFC7B685B7803F00203002B07D079
:109F9C007B68988A7B68DB88012219462FF0BCF815
:109FAC00FB69D86EFB69B3F84A301946FA693B680D
:109FBC0001F0A6F8F869FFF7E5FA02E000BF00E04F
:109FCC0000BF2037BD46B0BDF02E0020F42E00207F
:109FDC007ED1050000D2050080B584B000AFF860DA
:109FEC00B9607A603B607B685B7803F00203002BFE
:109FFC0006D0BB68D9B201237A68F8682EF0F0FE5F
:10A00C00F868FEF72DFEBB68591E3B687A6801F0B4
:10A01C0077F800BF1037BD4680BD000090B587B003
:10A02C0002AF786039600023FB737B68002B22D071
:10A03C007B689A1C3B681A6007F10F031946386855
:10A04C0006F0DDFEFB7B002B15D00D4B1B6803F0DF
:10A05C000403002B0FD00B4B1B68032B0BDD0A4C9E
:10A06C00FEF7E6FD0346094A009240F215422146EE
:10A07C00042008F093FFFB7B18461437BD4690BDB7
:10A08C00F02E0020F42E00207ED1050010D2050009
:10A09C0080B596B000AFF860B9607A603B60FB6841
:10A0AC00002B04D17B467B65786DFDF731FEBB68D8
:10A0BC00002B04D17B463B65386DFDF729FE3B68D0
:10A0CC00002B04D17B46FB64F86CFDF721FE3B684A
:10A0DC005B6A02337B623B6803F10C003B68DB7804
:10A0EC00002B01D0012100E002213B689B78082B5A
:10A0FC000CBF01230023DBB21A4607F1140306F050
:10A10C008BFE07F11403BB62FB68FB627B689BB29E
:10A11C003B86BB68FB63FB6B3A8E13443B643B682A
:10A12C009B7887F844303B681B7B022B0ED13B6835
:10A13C001B69002B04D17B46BB64B86CFDF7E8FDB2
:10A14C003B681B697B6310233B8701E000233B8743
:10A15C0007F12403184606F047FE00BF5837BD46EA
:10A16C0080BD80B483B000AF0346FB71FB79002B3C
:10A17C0001D1042300E0082318460C37BD465DF8D6
:10A18C00047B704780B584B000AF786039603B6861
:10A19C00DB695A787B681A713B68DB691B78002B8A
:10A1AC0014BF01230023DBB283F00103DBB203F005
:10A1BC000103DAB27B68DA703B68DA697B685A6251
:10A1CC003B689B8A0B2B07D83B68DB7A002B03D1AF
:10A1DC003B681B7B012B01D1012300E0002303F022
:10A1EC000103DAB27B681A707B681B78002B27D0CE
:10A1FC003B681B7B022B02D1354B9B7D01E03B68FE
:10A20C001B7B1846FFF7ADFF03461A467B689A7016
:10A21C003B689B8A1A467B689B7813440B332D4A08
:10A22C0082FB03125210DB17D31AFB60FB68DBB204
:10A23C00013BDAB27B685A727B6800221A7202E028
:10A24C007B6804229A707B680022DA757B683A6816
:10A25C000C3392E8030083E803003B689A697B683F
:10A26C001A623B681A897B689A823B689A7A7B6887
:10A27C009A753B681A6A7B689A627B68DF22DA629D
:10A28C003B6818461AF096FA0346002B08D03B6838
:10A29C001B78012B01D0FF2200E020227B68DA62C0
:10A2AC0078682EF0C7FE0346002B0DD07B681B7B15
:10A2BC00012B03D17B682022DA6205E07B68DB6A24
:10A2CC0043F020027B68DA6200BF1037BD4680BDC8
:10A2DC00F0350020ABAAAA2A80B586B000AFF86092
:10A2EC00B9607A60BB681A78FB68DA70FB68002288
:10A2FC005A62BB689B680B2B03D8BB681B7B002B7B
:10A30C0001D0012300E0002303F00103DAB2FB6863
:10A31C001A70FB6800229A70FB681B78002B0DD01A
:10A32C00BB689B680733DB087B617B69DBB2013B55
:10A33C00DAB2FB685A72FB6800221A72FB680122BF
:10A34C00DA75FB68BA680C33103292E8030083E8C4
:10A35C000300BB68DA89FB689A82BB689A69FB6860
:10A36C001A62BB681A7FFB689A75BB681A6AFB682D
:10A37C00DA62FB687A689A62F8682EF05BFE034634
:10A38C00002B0DD0FB681B7B012B03D1FB6820221B
:10A39C00DA6205E0FB68DB6A43F02002FB68DA62F4
:10A3AC0000BF1837BD4680BD80B58CB000AFF860DB
:10A3BC00B9607A60FB689B781A467B681344FA682C
:10A3CC00D27D002A01D00B2200E00F229A4201D24A
:10A3DC0009232BE0FB689B781A467B681A4407F12B
:10A3EC00100307F11401F868FFF740FAF862FB6AF2
:10A3FC00002B1AD1BB6A1946F868FFF7F0F9FB6815
:10A40C00DB7D002B06D03B697A68B968184631F0C1
:10A41C0071FE05E03969FB687A68B868FFF738FEA9
:10A42C0007F11403184607F07DF9FB6A184630371C
:10A43C00BD4680BD80B58EB000AF786039607B685A
:10A44C00DB7D002B01D0082300E00C237B637B6BAE
:10A45C003A6802FB03F33B637B685B7A1A463B6802
:10A46C00934206D17B68B3F84A301A463B6BD31A39
:10A47C007B633B68DAB27B681A72786807F10C036D
:10A48C0007F110017A6BFFF7F1F9F862FB6A002B08
:10A49C0054D13B68002B13D17B6893F8533083F075
:10A4AC000103DBB2002B0BD07B689B699BB2C3F31F
:10A4BC000C039AB27B68DA807B68012283F8532004
:10A4CC007B68DB7D83F00103DBB2002B22D07B6841
:10A4DC0093F8523083F00103DBB2002B1AD03B68A7
:10A4EC00002B04D07B46BB62B86AFDF711FC7B687D
:10A4FC00D86E7B68D96E7B68B3F84A301A467B6895
:10A50C009B78D31A1A467B68FFF7C2FD7B68012241
:10A51C0083F852207B687A6A11461846FFF75FF978
:10A52C00F8687B68DA6E3B6B13447A6B194631F032
:10A53C00E1FD07F11003184607F0F4F8FB6A184622
:10A54C003837BD4680BD80B584B000AF78603960C7
:10A55C000023FB603B68002B02D03B6800221A6092
:10A56C007B6893F85030FB7222E07B68DA6CFB7AE4
:10A57C00012101FA03F31340002B16D1FB7A194683
:10A58C007868FFF757FFF860FB68002B16D13B6823
:10A59C00002B04D03B681B685A1C3B681A60FB7A82
:10A5AC000133DAB27B6883F85020FB7A0133FB72FB
:10A5BC007B685B7AFA7A9A42D7D900E000BFFB68D5
:10A5CC0018461037BD4680BD90B5D3B004AF07F523
:10A5DC009C73A3F59673186007F59C73A3F5987399
:10A5EC00196007F59C73A3F59A731A6007F59C73B1
:10A5FC00A3F596731B689B781A4607F59C73A3F515
:10A60C009A731B681344C7F82C3107F59C73A3F598
:10A61C0096731B68DB7D002B02D04FF4807201E037
:10A62C004FF4C072D7F82C319A4201D20923F0E0D2
:10A63C000023C7F8343136E07849D7F83421134673
:10A64C00DB009B1A1B010B4448331B78012B25D1D3
:10A65C007249D7F834211346DB009B1A1B010B44BB
:10A66C0014331A8807F59C73A3F596731B689B8AA1
:10A67C009A4213D16949D7F834211346DB009B1A4F
:10A68C001B010B440E331A8807F59C73A3F59673C4
:10A69C001B68DB899A4201D10823BAE0D7F8343120
:10A6AC000133C7F83431D7F83431032BC4D907F54B
:10A6BC009C73A3F59673D7F82C2101211868FEF72B
:10A6CC00B9FEC7F82801D7F82831002B01D1042393
:10A6DC009FE0D7F82831D86E07F59C73A3F59A72D2
:10A6EC0007F59C73A3F598731268196831F002FD95
:10A6FC000023C7F8183107F58C731946D7F82801D1
:10A70C00FFF721FFC7F82401D7F82431002B03D021
:10A71C00D7F82431042B76D1D7F81831002B03D07D
:10A72C00D7F82801FFF72EF83D4B1B6803F0040304
:10A73C00002B66D03B4B1B68032B62DDD7F828310E
:10A74C00B3F84A30C7F82031D7F82031802B28BF16
:10A75C008023C7F820310023C7F8303130E0D7F818
:10A76C002831DA6ED7F8303113441B7887F81F3153
:10A77C002D4B1A6897F81F311B09DBB203F00F033E
:10A78C001A44D7F830315B00117807F59C72A2F5AA
:10A79C009272D154244B1A6897F81F3103F00F03AF
:10A7AC001A44D7F830315B000133117807F59C72ED
:10A7BC00A2F59272D154D7F830310133C7F8303149
:10A7CC00D7F83021D7F820319A42C8D3D7F82031A6
:10A7DC005B0007F59C72A2F592720021D154134CC8
:10A7EC00FEF726FA024607F114030293104B01936D
:10A7FC00104B009313464FF4AC622146042008F032
:10A80C00CDFB002305E0D7F82801FEF7BBFED7F8F7
:10A81C002431184607F59E77BD4690BD08360020BA
:10A82C00F02E0020F42E0020EC2E00207ED105000E
:10A83C0024D2050034D2050080B584B000AF0023CB
:10A84C00FB602CE01A49FA681346DB009B1A1B01CB
:10A85C000B4448331B78012B1ED100237B60FA6814
:10A86C001346DB009B1A1B01114A13443A1D114677
:10A87C001846FFF768FEB860BB68042B02D07B68F3
:10A88C00002B09D0FA681346DB009B1A1B01084AFF
:10A89C0013441846FEF776FFFB680133FB60FB6838
:10A8AC00032BCFD900BF00BF1037BD4680BD00BF02
:10A8BC000836002080B582B000AF78607B6893F8D2
:10A8CC004830022B12D17B6893F86830022B0DD1E3
:10A8DC007A687B68DB6C19461046FEF7FDFF034671
:10A8EC00002B03D17B68002283F8682000BF083757
:10A8FC00BD4680BD80B582B000AF00237B600CE00C
:10A90C007A681346DB009B1A1B01084A134418464D
:10A91C00FFF7D0FF7B6801337B607B68032BEFD99B
:10A92C0000BF00BF0837BD4680BD00BF0836002001
:10A93C0080B500AFFFF780FFFFF7DCFF012318465F
:10A94C0080BD80B598B000AFF860B9607A603B60AC
:10A95C00FB689B697B65FB681B78002B0AD0FB6846
:10A96C009A69FB68DB8819461046FEF7F6FB02462F
:10A97C00FB689A61FB6803F10C00FB68DB78002B29
:10A98C0001D0012100E00221FB689B78082B0CBF51
:10A99C0001230023DBB21A4607F1440306F03CFA0C
:10A9AC00FB687A6D9A6107F144037B62BB68BB62FA
:10A9BC007B689AB2FB689B789BB2D31A9BB2BB851F
:10A9CC00BB6ABA8D1344FB633B68BB63FB689B7823
:10A9DC0087F840300023BB86FB68DB78002B57D010
:10A9EC00FB681B7B022B04D11023BB86FB681B6905
:10A9FC003B63FB6800225A620023BB610023FB61AE
:10AA0C00FB68186AFB68197907F11803043307F11E
:10AA1C00180219F069FB0023FB651BE0FB6D9B0022
:10AA2C0060333B4453F8483C07F12002114618466A
:10AA3C00FFF7F4FA0346002B09D0FB6D9B00603343
:10AA4C003B4453F8482CFB685A62002350E0FB6DE2
:10AA5C000133FB65FB6D012B07D8FB6D9B0060334D
:10AA6C003B4453F8483C002BD8D1BB69002BC7D1D1
:10AA7C00FB681B7B022B3AD1FB68DA89FB680C3331
:10AA8C001946104619F050FC0346002BA8D12EE0B5
:10AA9C00FB681B7B012B2AD1FB68DB89BB82FB6823
:10AAAC009B8AFB820023BB651EE0FB6800225A6276
:10AABC00BB6D5B0060333B4433F84C2CFB68243398
:10AACC001946104619F04BFBFB685B6A07F1200234
:10AADC0011461846FFF7A2FA0346002B01D00023BB
:10AAEC0006E0BB6D0133BB65BB6D012BDDD90523C6
:10AAFC0018466037BD4680BD80B582B000AF786027
:10AB0C007B689B8A184603F0EDFA0346012B03D1B0
:10AB1C007B681B7B002B01D1102336E07B689B7D6F
:10AB2C005BB2002B01DA07232FE07B68DB7D002B67
:10AB3C0010D07B681B7B022B01D1102325E07B6896
:10AB4C00DB785BB2002B03DB7B689B78002B1BD084
:10AB5C0007231AE07B68DB7883F00103DBB2002B60
:10AB6C0005D07B681B7B012B01D007230DE07B6894
:10AB7C001B7883F00103DBB2002B05D07B689B783C
:10AB8C00042B01D0072300E0002318460837BD46EC
:10AB9C0080BD000080B586B000AFF860B9607A6007
:10ABAC003B60BB68002B01D109238EE03B6A0C3360
:10ABBC0018227968184631F09DFA3B6A00225A70C7
:10ABCC00F868FEF770F90346002B14BF012300232D
:10ABDC00DAB23B6A1A703B6A1B78002B01D0042353
:10ABEC0000E001237B61BA687B699A4201D2092398
:10ABFC006BE03B6ADB7D002B0AD0F868FEF784F92A
:10AC0C0003461A463B6ADA703B6A00229A702EE0C1
:10AC1C00F868FEF7E5F80346002B14BF0123002368
:10AC2C00DAB23B6ADA70F868FEF70EF903461A4698
:10AC3C003B6A1A713B6A1B78002B0BD0F868FEF745
:10AC4C0092F90346002B01D0082200E004223B6A53
:10AC5C009A700CE03B6A04229A703B6A9B781A4605
:10AC6C007B691344BA689A4201D209232DE03B6AEE
:10AC7C001B78002B14D0F868FEF7A6F903461A4689
:10AC8C003B6ADA80F868FEF7ECF903461A463B6A31
:10AC9C001A72F868FEF732FA03461A463B6A5A7281
:10ACAC003B6A00225A623B681B78032B04D97B4613
:10ACBC003B613869FDF72CF83B681B781A46054B4D
:10ACCC0053F822203B6ADA62002318461837BD4637
:10ACDC0080BD00BF08D3050090B58DB004AFF860FF
:10ACEC00B9607A603B60BB68062B40F08C80F868DA
:10ACFC00FDF7F3FF0346FB83F868FEF73BF8B861FA
:10AD0C00F868FDF7B9FF0346002B14BF012300239D
:10AD1C00FB75FB8B19467868FEF7A6FE38613B691C
:10AD2C00002B16D13B4B1B6803F00403002B6DD09A
:10AD3C00394B1B68012B69DD384CFDF779FF034655
:10AD4C00374A009240F279622146022008F026F937
:10AD5C005CE0FB7D83F00103DBB2002B24D03B696C
:10AD6C00DA897B689B8A9A421ED02A4B1B6803F0B7
:10AD7C000403002B49D0284B1B68012B45DD274CC5
:10AD8C00FDF756FF02463B69DB8919467B689B8AB7
:10AD9C0002930191234B0093134640F27D622146AE
:10ADAC00022008F0FBF830E0FB7D002B04D07B6820
:10ADBC009A8A3B69A3F858203B69DA6CBB691A4341
:10ADCC003B69DA64BB69002B04D103213869FEF7B7
:10ADDC0001FC1BE03B69DC6C3B691846FEF70FFA83
:10ADEC0003469C4203D13869FEF75AFC0EE03B69DE
:10ADFC00002283F8502000213869FFF7A4FB386942
:10AE0C00FEF7C0FC02E000BF00E000BF2437BD46E7
:10AE1C0090BD00BFF02E0020F42E00207ED1050046
:10AE2C003CD205006CD2050080B487B000AF03465D
:10AE3C00FB7100237B6120E07B69DB00154A134426
:10AE4C00FB6000233B6110E0FB681A683B69DB0088
:10AE5C001344BB60BB681B78FA799A4202D1BB6879
:10AE6C005B6810E03B6901333B61FB685B683A69E6
:10AE7C009A42E9D37B6901337B61074B1B687A6982
:10AE8C009A42D9D3002318461C37BD465DF8047B83
:10AE9C00704700BF543800206438002080B58EB055
:10AEAC0000AFF860B9607A603B607868FEF7E9F94A
:10AEBC000346002B39D17B68DB78002B06D13B682D
:10AECC007A68B968F868FFF707FF2EE07B68DB78D3
:10AEDC001846FFF7A9FF78637B6B002B24D07B68A7
:10AEEC00DB783B747B681B6ABB627B689B8AFB8349
:10AEFC007A6807F120030C3292E8030083E8030020
:10AF0C007B689B7D87F82C30FB687B61BB68BB61E1
:10AF1C007B681B783B777B68DB6A3B6307F110022D
:10AF2C007B6B39681046984700BF00BF3837BD4669
:10AF3C0080BD000090B5F5B002AF07F5E474A4F540
:10AF4C00DE74206007F5E470A0F5E070016007F591
:10AF5C00E471A1F5E2710A6007F5E472A2F5E472FE
:10AF6C00136007F1440307F5E472A2F5E07207F5EC
:10AF7C00E471A1F5DE7107F5E470A0F5E2701268DA
:10AF8C0009680068FFF7DDFCC7F8C401D7F8C431C5
:10AF9C00002B40F0918007F5E473A3F5E273186879
:10AFAC00FEF76FF90346002B40F09C8007F5E47325
:10AFBC00A3F5C67301221A7007F5E473A3F5E273C7
:10AFCC001B689A8A07F5E473A3F5C6735A8007F5D4
:10AFDC00E473A3F5C67300225A6007F5E473A3F576
:10AFEC00DC7300221A7007F5E473A3F5DC7307F128
:10AFFC0044025A6007F5E473A3F5E0731B689AB238
:10B00C0007F5E473A3F5E2731B689B789BB2D31A24
:10B01C009AB207F5E473A3F5DC731A8107F5E473B0
:10B02C00A3F5DC7307F5E472A2F5C6720C3392E853
:10B03C00030083E8030007F5E473A3F5DC7307F55D
:10B04C00E472A2F5E272126814330C3292E8030037
:10B05C0083E8030007F5E473A3F5E2731B689A7D9C
:10B06C0007F5E473A3F5DC7383F8242007F5E47388
:10B07C00A3F5E2731B681A6A07F5E473A3F5DC7396
:10B08C00DA6107F5E473A3F5E2731B685A6A07F5F6
:10B09C00E473A3F5DC731A6207F5E473A3F5DC73B0
:10B0AC0007F5E472A2F5E47212689A6207F11003D4
:10B0BC00184600F0ABFA15E00D4B1B6803F00403C7
:10B0CC00002B0FD00B4B1B68052B0BDD0A4CFDF72F
:10B0DC00AFFD0346094A009240F203722146062056
:10B0EC0007F05CFF00BF07F5E677BD4690BD00BFDB
:10B0FC00F02E0020F42E00207ED10500B0D20500E9
:10B10C0080B584B000AFF860B9607A603B607B6852
:10B11C005B7803F00103002B10D07B68DB7D002BE8
:10B12C0006D03B687A68B968F868FFF7B7FE05E0A7
:10B13C003B687A68B968F868FFF7FCFE00BF103707
:10B14C00BD4680BD80B584B000AF786039603B6887
:10B15C00FB60FB6893F84830022B04D07B46BB6045
:10B16C00B868FCF7D5FDFB68022283F86820F86804
:10B17C00FFF7A0FB00BF1037BD4680BD80B584B083
:10B18C0000AF786039603B68FB60FB6893F848302F
:10B19C00012B04D07B46BB60B868FCF7B9FDF8689E
:10B1AC00FEF73EFC00BF1037BD4680BD80B584B0B5
:10B1BC0000AF786039603B68FB600021F868FEF7EF
:10B1CC0009FA00BF1037BD4680BD000080B590B0B5
:10B1DC0000AFB9607A603B600346FB73FB7B002BCE
:10B1EC000ED13B6813F1020F0AD001233B753B686B
:10B1FC00BB617B68FB6107F11403184600F006FA8B
:10B20C00044B1B68184605F039FC00BF4037BD469F
:10B21C0080BD00BF5038002080B586B000AFF8600C
:10B22C00B9607A60F868FFF767FC78617B69002B7E
:10B23C0001D07B6910E0FB681B78002B06D07A6884
:10B24C00B968F868FFF7C0F9034605E07A68B96891
:10B25C00F868FFF7A9F8034618461837BD4680BDB5
:10B26C0080B500AF4FF4E07200211A4830F078FF3F
:10B27C0009F0BAFE184B00221A60802200211748F0
:10B28C0030F06EFF164B174A1A60154B164A5A606F
:10B29C00134B4CF250329A60114B144ADA60104B3B
:10B2AC004CF250321A610E4B04221A750C4B0022D0
:10B2BC009A750B4B08225A750D4805F0ADFB0346E9
:10B2CC000C4A13600C4B00221A600C480AF000FA6E
:10B2DC0000BF80BD08360020C8370020D0370020C2
:10B2EC00F035002080969800F049020020A107005C
:10B2FC003DA902005038002064380020D9B102006A
:10B30C0080B500AF09F092FE00BF80BD80B596B04D
:10B31C0002AFF860B9607A603B600023FB64FB68A5
:10B32C00002B02D07B68002B01D10E2372E007F1B9
:10B33C001C0300933B687A68B968F868FFF72AFC2D
:10B34C00F864FB6C002B01D0FB6C63E007F11C0371
:10B35C001846FFF7D1FBF864FB6C002B01D0FB6C9B
:10B36C0058E007F11C0318462DF064FE0346002B31
:10B37C0004D07B7F43F00203DBB27B7707F114032D
:10B38C0008220021184630F0EBFE7B685B8807F141
:10B39C0014021146184618F0C7FF0346002B04D0C0
:10B3AC007B7F43F00103DBB27B777B6818897B687A
:10B3BC00D9687B681B691A4609F0AAFE0346002B64
:10B3CC0009D07B7F23F00103DBB27B777B7F002BE3
:10B3DC0001D1FB6C1EE07B7F002B01D1FB6C19E0D3
:10B3EC007B7F03F00103002B01D0BB69FB623B7F29
:10B3FC00002B07D007F11C023B68B968F868FEF710
:10B40C00F9FC06E007F11C023B68B968F868FEF726
:10B41C00E3FD002318465037BD4680BD80B58EB085
:10B42C0000AF786039607B68002B0BD07B681B69A0
:10B43C00002B07D07B68DB69002B03D07B689B69F2
:10B44C00002B01D10E2310E007F108037968184690
:10B45C00FEF798FE7B6819697B689B8A1A4607F190
:10B46C0008031846FFF7D8FE034618463837BD4682
:10B47C0080BD000090B593B004AF786039607B68F4
:10B48C00002B07D07B685B68002B03D07B689B6923
:10B49C00002B01D10E232FE007F108033A687968DD
:10B4AC001846FEF719FF164B1B6803F00403002B1C
:10B4BC0017D0144B1B68062B13DD134CFDF7B8FB90
:10B4CC0002467B681B7819467B689B690293019145
:10B4DC000E4B0093134640F605022146072007F059
:10B4EC005DFD7B685B6819467B689A6807F1080309
:10B4FC001846FFF791FE034618463C37BD4690BDF3
:10B50C00F02E0020F42E00207ED10500DCD20500A8
:10B51C0080B584B000AF786039607B68002B01D1B6
:10B52C000E2349E0264B1B68012B01D9042343E071
:10B53C000023FB6029E0FB68DB007A6813445B683E
:10B54C00002B01D10E2337E0FB68DB007A68134433
:10B55C001B785BB2002B01DA0B232DE0FB68DB00C0
:10B56C007A6813441B78002B0AD0FB68DB007A68DE
:10B57C0013441B781846FFF757FC0346002B01D0E9
:10B58C000F2319E0FB680133FB60FA683B689A42B1
:10B59C00D1D30B4B1B680B497A6841F83320084B0D
:10B5AC001B68084ADB0013443A685A60044B1B685A
:10B5BC000133034A1360002318461037BD4680BD83
:10B5CC00643800205438002080B584B000AF0E4B96
:10B5DC001B68FB600FE0FB68043BBB60FB681B68EF
:10B5EC007B60BB681B7A002B03D0F968064807F018
:10B5FC00F7FB7B68FB60FB68002BECD100BF00BF46
:10B60C001037BD4680BD00BF6838002080B586B0BD
:10B61C0000AF78607B68002B04D17B463B613869B6
:10B62C00FCF776FB154B1B68002B23D0144B012227
:10B63C001A70124B1B687B6110E07B69043BFB604A
:10B64C00FB681B7A83F00103DBB2002B03D0FB6891
:10B65C001B68786898477B691B687B617B69002B4A
:10B66C00EBD1074B1B78022B01D1FFF7ADFF044B3D
:10B67C0000221A7000BF1837BD4680BD6838002004
:10B68C006C38002080B584B000AF78607B68002BEC
:10B69C0004D17B46FB60F868FCF73AFB7B68002220
:10B6AC001A727B6804331946034807F057FB00BF36
:10B6BC001037BD4680BD00BF6838002080B584B00F
:10B6CC0000AF78607B68002B04D17B46FB60F86888
:10B6DC00FCF71EFB0C4B1B78012B03D00A4B1B7881
:10B6EC00022B06D1084B02221A707B6801221A72B7
:10B6FC0006E07B6804331946044807F071FB00BF71
:10B70C0000BF1037BD4680BD6C3800206838002063
:10B71C0080B483B000AF786039607B689B683A680E
:10B72C00D31A9BB218460C37BD465DF8047B7047A4
:10B73C0080B483B000AF78600B467B807B689A68DE
:10B74C007B88134418460C37BD465DF8047B704764
:10B75C0080B584B000AF786039603B681B881946AF
:10B76C007868FFF7E5FF03461B880433BB813B6811
:10B77C001A88BB8903339BB223F003039BB2134497
:10B78C00FB81FA897B681B88043B9A4201D9002310
:10B79C00FB813B68FA891A8000BF1037BD4680BD1B
:10B7AC0080B584B000AF7860396039687868FFF78D
:10B7BC00AFFF0346FB8107F10E0319467868FFF7CC
:10B7CC00C7FFFB8919467868FFF7B2FF0346184696
:10B7DC001037BD4680BD80B584B000AF786039604D
:10B7EC007B689B687A68928813443A689A4204D0C2
:10B7FC007B46FB60F868FCF78BFA3B6800229A707A
:10B80C007B68043319467868FFF7A2FF7B689B8836
:10B81C0019467868FFF78CFF03469B78042B02D1FE
:10B82C007B6800229A8000BF1037BD4680BD80B572
:10B83C0084B000AF786039607B689B687A68528806
:10B84C0013443A689A4204D07B46FB60F868FCF7D4
:10B85C005FFA3B6800229A7000BF1037BD4680BD6E
:10B86C0080B483B000AF78607B681B88043B9BB2CC
:10B87C0018460C37BD465DF8047B704780B584B024
:10B88C0000AF78600B467B807B685B8819467868D4
:10B89C00FFF74EFFF860FB687A881A80FB6801227C
:10B8AC009A70FB6818461037BD4680BD80B582B0D3
:10B8BC0000AF786000217868FFF73AFF034600225A
:10B8CC009A707B6800225A807B6800229A8000BFA5
:10B8DC000837BD4680BD80B586B000AF78600B469A
:10B8EC007B807B8807339BB223F003037B827B68CE
:10B8FC005A887B689B889A420ED27A8A7B689B888E
:10B90C0019467B685B88CB1A9A4202DC00237B6168
:10B91C0042E004237B613FE07B685A887B689B880C
:10B92C009A4227D97B681B881A467B685B88D31A96
:10B93C00FB607B8AFA689A4202D300237B612BE07E
:10B94C007B689B887A8A9A4211D8FB68032B08D9AA
:10B95C007B685B8819467868FFF7EAFE0346042289
:10B96C009A707B6800225A8000237B6114E00423C8
:10B97C007B6111E07B689B8819467868FFF7D8FEDD
:10B98C0003469B78002B05D17868FFF78FFF0023C7
:10B99C007B6101E004237B617B6918461837BD4647
:10B9AC0080BD80B58AB000AFF860B9601346FB80EB
:10B9BC00BB68002B04D17B467B62786AFCF7A8F944
:10B9CC00FB68002B04D17B463B62386AFCF7A0F97C
:10B9DC00BB68B3F1005F09D94FF08053D3F80C3139
:10B9EC0003F500239A02BB689A4212D8BB68B3F5E0
:10B9FC00000F09D94FF08053D3F80C3103F50053E5
:10BA0C009A02BB689A4204D87B46FB61F869FCF742
:10BA1C007FF9FB88013BBA681344B3F1005F0DD981
:10BA2C00FB88013BBA6813441A464FF08053D3F895
:10BA3C000C3103F500239B029A4219D3FB88013B7E
:10BA4C00BA681344B3F5000F0DD9FB88013BBA68F3
:10BA5C0013441A464FF08053D3F80C3103F50053BE
:10BA6C009B029A4204D37B46BB61B869FCF750F940
:10BA7C00FB88042B04D87B467B617869FCF748F97A
:10BA8C00FB68FA881A80FB6800225A80FB68002247
:10BA9C009A80FB68BA689A600021F868FFF748FE44
:10BAAC003861FB681B88043B9AB23B691A803B697E
:10BABC0000229A7000BF2837BD4680BD80B588B083
:10BACC0000AF78607B68002B04D17B46FB61F86982
