:020000022000DC
:1060000000F0002069630200516302005363020044
:10601000556302005763020059630200000000004C
:106020000000000000000000000000005B630200B0
:106030005D630200000000005F6302006163020014
:106040006363020063630200636302006363020030
:106050006363020063630200399904006363020012
:10606000636302006363020025520400636302005D
:106070006363020063630200636302006363020000
:1060800063630200355905000F00030063630200DB
:10609000A55905006363020099AE04006363020022
:1060A00063630200636302006363020063630200D0
:1060B0006363020063630200000000000000000050
:1060C00063630200636302006363020063630200B0
:1060D0006363020063630200636302000000000068
:1060E00000000000000000000000000000000000B0
:1060F00000000000000000000000000000000000A0
:10610000000000000000000000000000000000008F
:10611000000000000000000000000000000000007F
:10612000000000000000000000000000000000006F
:10613000000000000000000000000000000000005F
:10614000000000000000000000000000000000004F
:10615000000000000000000000000000000000003F
:10616000000000000000000000000000000000002F
:10617000000000000000000000000000000000001F
:10618000000000000000000000000000000000000F
:1061900000000000000000000000000000000000FF
:1061A00000000000000000000000000000000000EF
:1061B00000000000000000000000000000000000DF
:1061C00000000000000000000000000000000000CF
:1061D00000000000000000000000000000000000BF
:1061E00000000000000000000000000000000000AF
:1061F000000000000000000000000000000000009F
:10620000334934480A1A02D0072291438D46324955
:1062100032480A1A06D00722914381F309880222E4
:1062200082F314882E482F492F4A00F03FF82F4858
:106230002F49304A00F03AF82F483049304A00F0F0
:1062400035F830483049314A00F030F830483149AB
:10625000314A00F02BF831483149324A00F026F833
:1062600031483249324A00F021F83248324900229E
:1062700000F027F831483249002200F022F8314876
:106280003149091A33F0D0FD1F482049884205D012
:106290000268043003B4904703BCF7E70020864649
:1062A000EC4600200021294A9047FEE7884207D0AB
:1062B000521A05D0037801300B700131013AF9D13F
:1062C0007047884202D002700130FAE77047000040
:1062D00000F0002000E8002000F0002000F0002086
:1062E00024C50500F02D0020B32E00209C63020081
:1062F0009C630200909E050024C50500F02D00203F
:10630000F02D002004A3050004A3050004A305004C
:1063100004A3050004A3050004A3050004A30500CD
:1063200004A3050024C50500E8C50500B42E00201F
:10633000B42E0020B42E0020A46E0020A46E0020F5
:10634000A46E0020A46E0020A4720020E96902005F
:10635000FEE7FEE7FEE7FEE7FEE7FEE7FEE7FEE715
:10636000FEE7FEE700F002B8FFF7FCBF08484FF079
:10637000070188438546074880470748016841F47C
:1063800070010160BFF34F8FBFF36F8FFFF738BF0E
:0C63900000F0002089BB040088ED00E054
:10639C0041DF704700BF184680B400AF034BD3F801
:1063AC0004351846BD465DF8047B7047001001406B
:1063BC0080B500AF01F0C2FE00BF80BD80B483B0D9
:1063CC0000AF786000BF0C37BD465DF8047B7047AA
:1063DC0090B583B002AF114B1B6803F48043002BC4
:1063EC000ED00F4B1B68032B0ADD0E4CFFF7D4FFAE
:1063FC0003460D4A00928E22214604200CF096F999
:10640C002EF074FB0322C8210F2000F0EDFE12F0D9
:10641C0043FA00BF0437BD4690BD00BF4C2E002090
:10642C00502E00202CA3050034A3050080B582B0AB
:10643C0000AF78607B681B78232B01D1FFF7C8FF76
:10644C0000BF0837BD4680BD90B585B002AF7860FF
:10645C007B6801337B60524B1B6803F48043002B39
:10646C0011D0504B1B68032B0DDD4F4CFFF794FFE5
:10647C0002467B6801934D4B00931346AA2221469A
:10648C0004200CF053F97B68042B4AD07B68042B56
:10649C0069D87B68012B03D07B68022B29D062E082
:1064AC003F4B1B6803F48043002B0ED03D4B1B6805
:1064BC00032B0ADD3C4CFFF76FFF03463C4A00926E
:1064CC00B222214604200CF031F90E2000F03CFEE3
:1064DC000346002B14BF01230023DBB283F001031E
:1064EC00DBB203F00103DBB219460E2000F03DFED7
:1064FC0052E02B4B1B6803F48043002B0ED0294B2E
:10650C001B68032B0ADD284CFFF746FF0346294A7C
:10651C000092B922214604200CF008F901F0E8FDA4
:10652C003AE012F09FF90346002B06D014F0B4FDAC
:10653C0012F08AF9FFF74CFF2BE0194B1B6803F4A0
:10654C008043002B25D0174B1B68032B21DD164CE9
:10655C00FFF722FF0346184A0092CB222146042063
:10656C000CF0E4F815E00E4B1B6803F48043002B91
:10657C0011D00C4B1B68032B0DDD0B4CFFF70CFFE4
:10658C0003460E4A0092D122214604200CF0CEF88C
:10659C0001E000BF00E000BF00BF0C37BD4690BD5E
:1065AC004C2E0020502E00202CA3050050A30500DB
:1065BC0064A3050074A3050094A3050014A50500AD
:1065CC0090B587B002AF78607B68302B0ADD7B68B2
:1065DC00342B07DC7B68313BFB60F868FFF734FF3A
:1065EC0000BF14E00C4B1B6803F48043002B0ED04F
:1065FC000A4B1B68032B0ADD094CFFF7CDFE034643
:10660C00084A0092DF22214604200CF08FF800BFCC
:10661C001437BD4690BD00BF4C2E0020502E0020DC
:10662C002CA3050014A5050080B582B000AF03466D
:10663C00FB7100210F2000F0ADFDFA7913469B0091
:10664C0013445B001A463221032000F0CDFD00BF3D
:10665C000837BD4680BD80B500AF00F01BFE00BF03
:10666C0080BD000090B585B002AF3B1D18461BF0F5
:10667C0001FD0D4B1B6803F48043002B10D00B4B1A
:10668C001B68032B0CDD0A4CFFF786FE0346BA8809
:10669C000192084A0092F422214604200CF046F89C
:1066AC0000BF0C37BD4690BD4C2E0020502E002054
:1066BC002CA30500CCA3050090B583B002AF154BFD
:1066CC001B6803F48043002B0ED0134B1B68032B69
:1066DC000ADD124CFFF760FE0346114A0092F922C4
:1066EC00214604200CF022F801F034F901F072F983
:1066FC00FFF7B8FF00F0CEFD00210F2000F04AFD9F
:10670C000422C8210F2000F06FFD00BF0437BD46E6
:10671C0090BD00BF4C2E0020502E00202CA3050055
:10672C00E4A3050090B583B002AF0E4B1B6803F4D5
:10673C008043002B0FD00C4B1B68032B0BDD0B4C39
:10674C00FFF72AFE03460A4A00924FF4857221464F
:10675C0004200BF0EBFFFFF72BFE00BF0437BD4608
:10676C0090BD00BF4C2E0020502E00202CA3050005
:10677C0000A4050090B58FB002AF2EF069F93B1D57
:10678C0024220021184633F07BFA01233B710723A6
:10679C00FB7106233B732C4B7B612C4B7B623B1DAB
:1067AC002B49184611F01CFFF862FB6A002B02D132
:1067BC002EF072F9F862FB6A002B3DD0FB6A0B2BB2
:1067CC002ED12EF093F9234B1B6803F48043002B3E
:1067DC000FD0214B1B68032B0BDD204CFFF7DCFD8E
:1067EC0003461F4A00924FF49572214604200BF089
:1067FC009DFF184B1B6803F48043002B1ED0164BD7
:10680C001B68032B1ADD154CFFF7C6FD0346154A12
:10681C00009240F22B12214604200BF087FF0DE072
:10682C00FB6ABB62BB6A002B09D00F4A4FF498710C
:10683C00B86A25F011FB02E000BF00E000BF00BF0A
:10684C003437BD4690BD00BF396402003167020089
:10685C00B42E00204C2E0020502E00202CA305001E
:10686C0020A4050070A4050004A3050090B585B014
:10687C0002AF1B4A05214FF410300BF03BFF194BB4
:10688C001B6803F48043002B0FD0174B1B68032BA2
:10689C000BDD164CFFF780FD0346154A009240F2C3
:1068AC003712214604200BF041FF2FF07BF8786063
:1068BC007B68002B05D00F4A40F23911786825F01F
:1068CC00CBFA00F0F9FC00F0ECFF01F043F801F01A
:1068DC0081F8FFF74FFF00BF0C37BD4690BD00BFDE
:1068EC00C52603004C2E0020502E00202CA30500A2
:1068FC00ACA4050004A30500B0B58CB002AF6421B4
:10690C002D4800F0D3FA2D4B1B7883F00103DBB23A
:10691C00002B17D02A4B3C1D1D460FCD0FC495E8FC
:10692C00070084E807003B1D184600F037FA786230
:10693C007B6A002B08D0234A4FF4AF71786A25F09C
:10694C008BFA01E0FFF78EFE01F094FC034618462B
:10695C0000F00AFD1C4807F0CFF911F0BFFE3862B9
:10696C003B6A002B05D0174A4FF4B571386A25F0F5
:10697C0073FA164B1B6803F48043002B0FD0144B97
:10698C001B68032B0BDD134CFFF706FD0346124A65
:10699C0000924FF4B672214604200BF0C7FE002182
:1069AC000C2000F0F7FB0222C8210C2000F01CFC8C
:1069BC0000BF2837BD46B0BDCD650200B42E002007
:1069CC00F8A4050004A30500F02D00204C2E002097
:1069DC00502E00202CA3050014A5050080B500AF97
:1069EC00FFF744FFFFF788FFFFF7D2FCFCE769DFF6
:1069FC00704700BF1846000080B483B000AF7860C9
:106A0C007B681B781F2B02D1044B01221A7000BF2C
:106A1C000C37BD465DF8047B704700BF8232002006
:106A2C0080B584B000AF78607B681B781C2B0FD1CD
:106A3C00094B1B78002B0BD024F0C0F9F860FB68D5
:106A4C00002B02D0F86825F0F1F9044807F05FF943
:106A5C0000BF1037BD4680BDB52E0020082E00208B
:106A6C0080B594B000AF03463960FB715D4B1B7869
:106A7C0083F00103DBB2002B40F0AC80FB79012BDF
:106A8C0003D0032B00F09A80A9E000237B6207F16E
:106A9C0024031946012023F06FFE78647B6C3B6461
:106AAC003B6C002B02D0386C25F0C0F907F11803B1
:106ABC000C220021184633F0E3F83B7E012262F3EE
:106ACC0003033B763B7E012262F307133B767B7E0E
:106ADC00012262F301037B760023FB6100233B84DC
:106AEC0010237B847A6A07F1180319464120FFF7BB
:106AFC007EFFF863FB6B002B02D0F86B25F096F948
:106B0C0007F12403184623F0C5FE78647B6CBB6345
:106B1C00BB6B002B02D0B86B25F088F9324B1B688D
:106B2C00002B02D0304B1B68984701233B6107F1C7
:106B3C00100207F11603114618461CF001FA78638F
:106B4C007B6B002B02D0786B25F070F9FB8A184612
:106B5C001BF0C6FC03461A4607F10F0319461046F4
:106B6C001BF000FF38633B6B002B02D0386B25F019
:106B7C005DF914F0E7F9FB7B1946002014F0B4FB27
:106B8C000346002B04D07B46FB62F86A01F078F8D0
:106B9C0007F028F878647B6CBB62BB6A002B02D0D0
:106BAC00B86A25F043F90F4B00221A700E4B5B6844
:106BBC00002B11D00C4B5B6898470DE024F0ACF81F
:106BCC00F864FB6CBB64BB6C002B07D0B86C25F075
:106BDC002DF903E000BF02E000BF00E000BF50371A
:106BEC00BD4680BDB52E0020D030002080B582B0CF
:106BFC0000AF094B01221A70084807F07DF807F026
:106C0C004DF878607B68002B02D0786825F00EF97F
:106C1C0000BF0837BD4680BDB52E0020082E0020D1
:106C2C0080B582B000AF124B1B78002B01D008232B
:106C3C0019E000237B6001237B607B6843F0020337
:106C4C007B600C490C4826F0EBF838603B68002B55
:106C5C0001D03B6807E0094B59697B680022084862
:106C6C0026F0ECF8034618460837BD4680BD00BF39
:106C7C00823200206032002020320020D0300020F0
:106C8C00EC30002080B584B000AF78607B681B7856
:106C9C00023B082B6ED801A252F823F00F6D0200B4
:106CAC00CD6C0200F16C0200816D0200816D02005E
:106CBC003D6D0200816D0200816D02005B6D020072
:106CCC00324B9B68002B57D07B681B7A002B53D020
:106CDC002F4B01221A702D4B9B687A68127A104642
:106CEC00984749E0294BDB68002B47D0284B1B7891
:106CFC00002B43D0264B00221A70244BDB6898479C
:106D0C003CE0244B1B7883F00103DBB2002B0CD04E
:106D1C001E4B1B69002B05D01D4B00221A701B4B00
:106D2C001B699847FFF77CFF2BE0FFF75FFF28E01C
:106D3C00164B9B6910221946174826F017F9B860B4
:106D4C00BB68002B1CD0B86825F070F818E07B6885
:106D5C00DA687B689B681946104611F0D5FCF86020
:106D6C00FB68002B02D0F86825F060F8094B012273
:106D7C001A7006E000BF04E000BF02E000BF00E0B4
:106D8C0000BF00BF1037BD4680BD00BFD030002013
:106D9C008132002080320020EC300020B0B58CB065
:106DAC0002AF78602B4A07F10C0307CA03C31A80A1
:106DBC000233120C1A70284A7B6814461D460FCDFC
:106DCC000FC495E8070084E80700234B9B69002B50
:106DDC0001D1072339E007F10C03204A0092204A25
:106DEC002049214825F08BFF78627B6A002B01D06B
:106DFC007B6A2AE01D4828F0F3FA034619461A4824
:106E0C0025F0E6FF38623B6A002B01D03B6A1CE0A0
:106E1C00174828F093FDF861FB69002B01D0FB6942
:106E2C0013E0134828F0CCFD034619460E4825F014
:106E3C00CFFFB861BB69002B01D0BB6905E00D48E1
:106E4C0006F05AFFFFF7ECFE034618462837BD46FE
:106E5C00B0BD00BF58A60500D0300020916C0200D8
:106E6C006032002020320020EC300020082F00205F
:106E7C00B82E0020FC2D002080B584B000AF7860C7
:106E8C00094B1B68002B0BD020F098F8F860FB68BE
:106E9C00002B04DB044B1B68F8689847F4E700BF31
:106EAC0000BF1037BD4680BD843200202DE9F04F65
:106EBC0087B000AFF860B960244AFB681360244ABD
:106ECC00012124482EF0ACFD78617B69002B04D0A5
:106EDC00214A4A21786924F0BFFF204EBB6800226A
:106EEC009A4693464FEA5A454FEACA3441F27073B8
:106EFC009C4275F1000315D3BB680022984691465D
:106F0C004FEA58437B604FEAC8333B604FF47A72C8
:106F1C004FF00003D7E9000132F0B4FD02460B46F6
:106F2C00134600E005230022194630462EF0ACFD36
:106F3C0038613B69002B04D0074A4B21386924F097
:106F4C008BFF00BF1C37BD46BDE8F08F843200209C
:106F5C00856E020064A6050068A605008832002034
:106F6C0080B483B000AF78604FF0A04318460C3764
:106F7C00BD465DF8047B704780B584B000AF786087
:106F8C003B1D1846FFF7ECFFF860F86800F00AF8B4
:106F9C0002467B6822FA03F303F00103184610370C
:106FAC00BD4680BD80B483B000AF78607B68D3F8F9
:106FBC00043518460C37BD465DF8047B704700005D
:106FCC0080B584B000AF78600023FB600023BB6009
:106FDC001BE00122BB6802FA03F31A467B681340DC
:106FEC00002B0FD00D4ABB6813441B78184600F0D9
:106FFC00ABF803461A46BB6802FA03F31A46FB6861
:10700C001343FB60BB680133BB60BB68032BE0D947
:10701C00FB6818461037BD4680BD00BF98A605001A
:10702C0090B585B000AF78600023FB6027E00122AB
:10703C00FB6802FA03F31A467B681340002B1BD043
:10704C00134AFB6813441B781C46114AFB68134413
:10705C001B78184600F078F80346002B14BF012368
:10706C000023DBB283F00103DBB203F00103DBB2DC
:10707C001946204600F079F8FB680133FB60FB6889
:10708C00032BD4D900BF00BF1437BD4690BD00BF41
:10709C0098A6050080B584B000AF7860254B1B68BE
:1070AC00002B14BF01230023DBB2BB60BB68002B99
:1070BC0002D1002024F0BAFE1F4B1B681846FFF7C4
:1070CC00AFFF1C4B1B68013B1A4A1360194B1B6822
:1070DC00002B2AD1194B18462EF00EFD0023FB6015
:1070EC0020E00122FB6802FA03F31A46124B1B68DC
:1070FC001340002B13D0124AFB6813441B7818461C
:10710C00104B1A68FB6822FA03F303F00103002BFF
:10711C0014BF01230023DBB2194600F026F8FB68EC
:10712C000133FB60FB68032BDBD900BF1037BD4676
:10713C0080BD00BFC8320020CC320020A832002015
:10714C0098A60500D032002080B582B000AF7860E0
:10715C007868FFF711FF0346002B0CBF01230023B7
:10716C00DBB218460837BD4680BD80B582B000AF93
:10717C0078600B46FB70FB78002B03D0786822F00C
:10718C0041FB02E0786822F032FB00BF0837BD46B5
:10719C0080BD000080B584B000AF78600B46FB70FA
:1071AC000023FB6015E00122FB6802FA03F31A4688
:1071BC007B681340002B09D00A4AFB6813441B78E8
:1071CC001A46FB7819461046FFF7CFFFFB680133D0
:1071DC00FB60FB68032BE6D900BF00BF1037BD4630
:1071EC0080BD00BF98A605002DE9F04385B000AF27
:1071FC00F860B9607A607B68002B3DD0BB68132BBC
:10720C003AD9204AFB6813607B685B00013B1E4A3D
:10721C0013601C4B1B681846FFF7D2FE03461B4A33
:10722C0013601B4EBB6800221C4615464FF0000233
:10723C004FF00003EB0343EA5443E20312F5FA78F0
:10724C0043F100094FF47A724FF00003404649466F
:10725C0032F018FC02460B46134600221946304603
:10726C002EF012FC0346002B07D1064B1B680121A4
:10727C001846FFF78FFF00E000BF1437BD46BDE88E
:10728C00F08300BFCC320020C8320020D032002066
:10729C00A832002080B500AF054B18462EF02CFC10
:1072AC00044B1B6800211846FFF774FF00BF80BD1C
:1072BC00A8320020CC32002080B586B000AF22F07E
:1072CC003BFA034683F00103DBB2002B08D022F01B
:1072DC00D9F938613B69002B02D0386924F0A6FD3E
:1072EC003B1D00210A461A800A469A7001237B71C5
:1072FC0000237B6113E0134A7B6913441B781A4605
:10730C003B1D1946104622F029FAB860BB68002BC9
:10731C0002D0B86824F08AFD7B6901337B617B69FC
:10732C00032BE8D9084A012108482EF079FBF860B4
:10733C00FB68002B02D0F86824F078FD00BF1837EA
:10734C00BD4680BD98A60500A170020094A605005C
:10735C0080B400AF034BD3F804351846BD465DF836
:10736C00047B704700100140F0B5D9B00CAF07F5A5
:10737C009873A3F58A73186007F59873A3F58A734D
:10738C001B68002B00F0EC8007F59873A3F58A734B
:10739C001B68C7F82831754B1B6803F48043002B1E
:1073AC0064D0734B1B68032B60DD1023C7F82431AA
:1073BC00D7F82431802B28BF8023C7F82431002331
:1073CC00C7F82C3132E007F59873A3F58A731A6865
:1073DC00D7F82C3113441B7887F82331654B1A6886
:1073EC0097F823311B09DBB203F00F031A44D7F8CB
:1073FC002C315B00117807F59872A2F58872D15484
:10740C005C4B1A6897F8233103F00F031A44D7F832
:10741C002C315B000133117807F59872A2F5887254
:10742C00D154D7F82C310133C7F82C31D7F82C2193
:10743C00D7F824319A42C6D3D7F824315B0007F52C
:10744C009872A2F588720021D1544B4CFFF780FF43
:10745C00024607F120030293484B0193484B0093DB
:10746C0013464222214604200BF060F93F4B1B6867
:10747C0003F48043002B74D03D4B1B68032B70DD51
:10748C003D4DFFF765FF0446D7F828311B681A06F7
:10749C00D7F828311B681B0203F47F031A43D7F873
:1074AC0028311B681B0A03F47F431A43D7F8283191
:1074BC001B681B0E1343D7F82821928892B2120234
:1074CC0091B2D7F82821928892B2120A92B2D2B213
:1074DC000A43D7F82811C98889B2090288B2D7F8AB
:1074EC002811C98889B2090A89B2C9B20143D7F8EF
:1074FC002801007A0646D7F82801407AB861D7F8F7
:10750C002801807A7861D7F82801C07A3861D7F8D9
:10751C002801007BF860D7F82801407BB860D7F8C9
:10752C002801807B7860D7F82801C07B0B907868A5
:10753C000A90B8680990F8680890386907907869DB
:10754C000690B869059004960391029201930D4B35
:10755C00009323464322294604200BF0E7F800E071
:10756C0000BF07F59A77BD46F0BD00BF4C2E00203A
:10757C00502E0020482E0020BCA60500D0A60500E9
:10758C00E4A60500ECA6050072DF704700BF1846A4
:10759C0073DF704700BF184674DF704700BF184692
:1075AC0080B5A8B000AF03463960FB8013467B71F1
:1075BC00102200214C4832F063FB4C4B1B781A46CE
:1075CC0013465B019B1A4A4A1344474A1360474BC4
:1075DC001B781A4613465B019B1A464A1344424ACF
:1075EC009360414B1F229A803F4B1F229A813F4B45
:1075FC001B780133DBB203F00103DAB23B4B1A7098
:10760C0007F154033C220021184632F039FB0623C3
:10761C0087F85730FB88A7F85030012387F8523091
:10762C000123A7F8643007F15003BB66FB88A7F869
:10763C0044307B799BB2A7F848303B68FB6407F178
:10764C004403FB67012387F8803007F108033C22D1
:10765C000021184632F014FB02233B72224B1968AE
:10766C0007F15403244A184622F0C9FEC7F89800C3
:10767C00D7F89830002B03D0D7F8980024F0D6FB1D
:10768C00194B996807F108031C4A184622F0B7FEFB
:10769C00C7F89400D7F89430002B03D0D7F8940097
:1076AC0024F0C4FB164A10491648FFF76DFFC7F8C3
:1076BC009C00D7F89C30082B06D100220A491148AF
:1076CC00FFF762FFC7F89C00D7F89C30C7F89030E2
:1076DC00D7F89030002B03D0D7F8900024F0A6FBFD
:1076EC0000BFA037BD4680BDD432002062330020DD
:1076FC00E432002024330020D8320020E032002075
:10770C00182E0020142E002080B485B000AF7860B5
:10771C0039607B68B3F5202F05D27B680E4AA2FB3B
:10772C000323DB0801E04FF6FF73FB607B68002B43
:10773C0004D0FB68002B01D10123FB60FB689AB2DB
:10774C00064B9A81054A3B68936000BF1437BD46CF
:10775C005DF8047B704700BFCDCCCCCC182E00203C
:10776C0080B582B000AF0A4B1B7801211846FFF799
:10777C000FFF78607B68002B02D0786824F056FBF2
:10778C00002007F087FF00BF0837BD4680BD00BF53
:10779C00142E002080B582B000AF084B1B78184621
:1077AC00FFF7FAFE78607B68002B02D0786824F033
:1077BC003DFB00BF0837BD4680BD00BF142E002026
:1077CC0076DF704700BF18467ADF704700BF184657
:1077DC007CDF704700BF184669DF704700BF184652
:1077EC0080B400AF034BD3F804351846BD465DF8A2
:1077FC00047B70470010014080B582B000AF786008
:10780C003960786806F08EFA00BF0837BD4680BD37
:10781C0090B587B002AF78607B681B78002B0FD1D6
:10782C007B685B883B211846FFF7CAFFF860FB6852
:10783C00BB60BB68002B1CD0B86824F0F7FA18E0CA
:10784C007B681B78012B14D10C4B1B6803F4804311
:10785C00002B0ED00A4B1B68032B0ADD094CFFF7DB
:10786C00BFFF0346084A00926822214604200AF012
:10787C005DFF00BF1437BD4690BD00BF4C2E0020ED
:10788C00502E00204CA7050068A7050080B582B0DB
:10789C0000AF7860786824F0C9FA00BF0837BD469D
:1078AC0080BD80B58AB000AF23F036FA78627B6A6F
:1078BC003B623B6A002B02D0386A24F0B7FA0023F3
:1078CC003B6107F110031946012022F055FF786245
:1078DC007B6AFB61FB69002B02D0F86924F0A6FAE5
:1078EC003B1D0C220021184632F0CAF93B790122CB
:1078FC0062F303033B713B79012262F307133B7183
:10790C007B79012262F301037B710023BB600023AE
:10791C00BB811023FB813A693B1D19464120FFF7BF
:10792C005BFFB861BB69002B02D0B86924F07EFA0A
:10793C0007F11003184622F0ADFF78627B6A7B6179
:10794C007B69002B02D0786924F070FA00BF2837CD
:10795C00BD4680BD80B586B000AF3B7A012262F394
:10796C0003033B723B7A012262F307133B7207F16C
:10797C000803102216491846FFF72AFF78617B6925
:10798C003B613B69002B02D0386924F04FFA3B462F
:10799C0008220021184632F073F978233B80C82363
:1079AC007B800023BB804FF4C873FB803B4618469A
:1079BC00FFF70AFF78617B69FB60FB68002B02D044
:1079CC00F86824F033FA00BF1837BD4680BD00BFFD
:1079DC0094A7050080B58CB000AF3B1D0822002198
:1079EC00184632F04DF97823BB80C823FB80002366
:1079FC003B814FF4C8737B8107F10C031C220021DF
:107A0C00184632F03DF93B1DFB6040F6CD433B611F
:107A1C004FF480337B6103233B7600237B8300236D
:107A2C003B770B4B3B620B4B7B6207F10C0318460D
:107A3C0023F07EFBF862FB6ABB62BB6A002B02D0B0
:107A4C00B86A24F0F3F900BF3037BD4680BD00BFE3
:107A5C001D7802009978020080B400AF0623184606
:107A6C00BD465DF8047B704780B400AF034BD3F880
:107A7C0004351846BD465DF8047B70470010014084
:107A8C0080B483B000AF4FF0A0430E4AC3F8182562
:107A9C004FF0A0430B4AC3F80C25EFF310837B6027
:107AAC0072B64DF6AD6C00E030BF074B1B78DBB205
:107ABC00002BF9D100BF00BF0C37BD465DF8047B2D
:107ACC00704700BF004040C0302E002090B58DB0F4
:107ADC0006AFF860B9607A60FB6844F20202934228
:107AEC0051D0FB6844F20202934200F29080FB6892
:107AFC0044F20102934267D0FB6844F201029342C4
:107B0C0000F28580FB68012B05D0FB6841F2010275
:107B1C0093421DD07BE0524B1B6803F48043002B37
:107B2C0000F08E804F4B1B68002B40F389804E4C2D
:107B3C00FFF79AFF02467B680293BB6801934B4B9D
:107B4C00009313466022214601200AF0EFFD77E0F6
:107B5C00434B1B6803F48043002B73D0414B1B68D1
:107B6C00002B6FDD404CFFF77FFF02467B680293D2
:107B7C00BB6801933E4B00931346632221460120C0
:107B8C000AF0D4FD5EE07B687B61354B1B6803F427
:107B9C008043002B58D0334B1B68002B54DD324CE8
:107BAC00FFF762FF01467B695B687A691268039292
:107BBC000293BB6801932F4B00930B46692221461D
:107BCC0001200AF0B3FD3FE07B683B61244B1B684E
:107BDC0003F48043002B39D0224B1B68002B35DD7E
:107BEC00214CFFF741FF3B699B683A695268396940
:107BFC00096804910392BA68029201931E4B009398
:107C0C0003467322214601200AF090FD1EE0144B1E
:107C1C001B6803F48043002B1AD0124B1B68002BFB
:107C2C0016DD114CFFF720FF0246BB680193134B86
:107C3C00009313467B22214601200AF077FD07E0D2
:107C4C0000BF06E000BF04E000BF02E000BF00E0A0
:107C5C0000BFFFF715FF00BF1C37BD4690BD00BF2E
:107C6C004C2E0020502E0020C8A70500DCA70500D4
:107C7C00F8A705001CA805003CA8050060A8050095
:107C8C0080B584B000AF78600023BB60064BFB600E
:107C9C0007F108031A46796844F20200FFF716FF51
:107CAC0000BF1037BD4680BD7CA8050080B400AF76
:107CBC00034BD3F804351846BD465DF8047B70477A
:107CCC0000100140B0B5A2B004AF0346B9607A60B1
:107CDC00FB81244B1B6803F48043002B0ED0224BFA
:107CEC001B68032B0ADD214CFFF7E0FF0346204AFB
:107CFC0000922922214604200AF018FDBB6859681D
:107D0C00BB681B8901331A4607F11403184631F07E
:107D1C0081FF144B1B6803F48043002B1DD0124BC6
:107D2C001B68032B19DD114DFFF7C0FF044607F14B
:107D3C001403184631F03EFF0246BB681B891946F6
:107D4C0007F114030393029101920A4B009323460B
:107D5C002C22294604200AF0E9FC00231846783727
:107D6C00BD46B0BD4C2E0020502E0020A8A805000A
:107D7C00B4A80500C4A8050090B587B002AF0346AF
:107D8C00B9607A60FB810C4B1B6803F48043002BB9
:107D9C000ED00A4B1B68032B0ADD094CFFF786FF3C
:107DAC000346084A00928822214604200AF0BEFCB1
:107DBC0000BF1437BD4690BD4C2E0020502E002025
:107DCC00A8A80500D0A8050090B587B002AF03465F
:107DDC00B9607A60FB810C4B1B6803F48043002B69
:107DEC000ED00A4B1B68032B0ADD094CFFF75EFF14
:107DFC000346084A00928A22214604200AF096FC87
:107E0C0000BF1437BD4690BD4C2E0020502E0020D4
:107E1C00A8A80500ECA8050090B587B002AF0346F2
:107E2C00B9607A60FB810C4B1B6803F48043002B18
:107E3C000ED00A4B1B68032B0ADD094CFFF736FFEB
:107E4C000346084A00928C22214604200AF06EFC5C
:107E5C0000BF1437BD4690BD4C2E0020502E002084
:107E6C00A8A8050004A9050090B587B002AF034689
:107E7C00B9607A60FB810C4B1B6803F48043002BC8
:107E8C000ED00A4B1B68032B0ADD094CFFF70EFFC3
:107E9C000346084A00928E22214604200AF046FC32
:107EAC0000BF1437BD4690BD4C2E0020502E002034
:107EBC00A8A8050018A90500B0B58AB004AF786071
:107ECC003960CA233B8159237B813B68FB6038684E
:107EDC0031F070FE03469BB23B820023BB7402233D
:107EEC00FB7405F03BFF03467B61154B1B6803F4E9
:107EFC008043002B17D0134B1B68032B13DD124D43
:107F0C00FFF7D4FE0446386831F054FE02463B6855
:107F1C00029301920D4B0093234640F231122946F5
:107F2C0004200AF003FC7B681B8807F10802114649
:107F3C00184616F0ABF9034618461837BD46B0BDC7
:107F4C004C2E0020502E0020A8A8050030A90500BA
:107F5C0080B400AF034BD3F804351846BD465DF82A
:107F6C00047B70470010014090B585B002AF78607B
:107F7C000C4B1B6803F48043002B0ED00A4B1B6880
:107F8C00032B0ADD094CFFF7E3FF0346084A009276
:107F9C007722214604200AF0C9FB00BF0C37BD46EE
:107FAC0090BD00BF4C2E0020502E0020ACA9050027
:107FBC00BCA9050090B587B002AFF860B960134654
:107FCC00FB710C4B1B6803F48043002B0ED00A4B47
:107FDC001B68032B0ADD094CFFF7BAFF0346084A5E
:107FEC0000927F22214604200AF0A0FB00BF143728
:107FFC00BD4690BD4C2E0020502E0020ACA9050093
:10800C00D4A9050090B587B002AFF860B9607A606A
:10801C000C4B1B6803F48043002B0ED00A4B1B68DF
:10802C00032B0ADD094CFFF793FF0346084A009225
:10803C009822214604200AF079FB00BF1437BD4674
:10804C0090BD00BF4C2E0020502E0020ACA9050086
:10805C00ECA9050090B587B002AFF860B9607A6002
:10806C000C4B1B6803F48043002B0ED00A4B1B688F
:10807C00032B0ADD094CFFF76BFF0346084A0092FD
:10808C00A622214604200AF051FB00BF1437BD463E
:10809C0090BD00BF4C2E0020502E0020ACA9050036
:1080AC0000AA050090B585B002AF786039600C4B22
:1080BC001B6803F48043002B0ED00A4B1B68032B68
:1080CC000ADD094CFFF744FF0346084A0092B3222D
:1080DC00214604200AF02AFB00BF0C37BD4690BD98
:1080EC004C2E0020502E0020ACA905001CAA050027
:1080FC0090B5B3B000AF0F4B07F164041868596822
:10810C009A68DB680FC407F17403542200211846E7
:10811C0031F0B6FD3B466422194600201EF0BEFE2F
:10812C003B4619460448FFF7C7FE03461846CC37B2
:10813C00BD4690BD2CAA0500342E002090B58DB004
:10814C0002AF244B1B6803F48043002B0FD0224B4F
:10815C001B68032B0BDD214CFFF7FAFE0346204A6C
:10816C00009240F29B12214604200AF0DFFA1D4BCC
:10817C003B620023FB833B1D00221A605A609A600D
:10818C00DA601A615A615923BB800A23FB80FB8B8E
:10819C003B81154BFB6005233B613B6A7B613A6A73
:1081AC003B1D1146184615F041FF78627B6A002B87
:1081BC000BD1FB8B0D493A6A41F823203B6A1B8893
:1081CC00184616F0C9FA03467B627B6A18462C37B0
:1081DC00BD4690BD4C2E0020502E0020ACA90500B1
:1081EC0024AB0500342E002038A905006433002090
:1081FC0090B482B000AF7860064A7B681446186869
:10820C0059689A68DB680FC400BF0837BD4690BC3C
:10821C00704700BF6833002080B500AF08221149B9
:10822C00114831F0F7FC08221049114831F0F2FCEA
:10823C000D4B9B795BB203F00F035BB243F0400331
:10824C005BB2DAB2084B9A71074B1B7A5BB203F044
:10825C003F035BB263F07F035BB2DAB2024B1A727C
:10826C0000BF80BD6000001068330020A400001027
:10827C007033002080B400AF024B1846BD465DF849
:10828C00047B70476833002080B483B000AF0023B8
:10829C007B6013E00F4A7B68DB00134400225A809A
:1082AC000C4A7B68DB00134400225A60094A7B6845
:1082BC00002102F833107B6801337B607B681F2B35
:1082CC00E8D9054B00221A6000BF0C37BD465DF89B
:1082DC00047B7047783300207834002080B485B05C
:1082EC0000AF03463960FB801B4B1B68FB6000230F
:1082FC00BB6026E0FB685A1EFA60002B01D11F23DD
:10830C00FB60164AFB6812F8333083F00103DBB2D2
:10831C00002B01D0002318E0104AFB68DB0013444B
:10832C005B88FA889A4209D10C4AFB68DB0013443B
:10833C005B683A689A4201D1012306E0BB680133BD
:10834C00BB60BB681F2BD5D9002318461437BD461C
:10835C005DF8047B704700BF783400207833002030
:10836C0080B483B000AF03463960FB80124B1B68AE
:10837C00124ADB001344FA885A800F4B1B680F4AD1
:10838C00DB0013443A685A600B4B1B680B4A012103
:10839C0002F83310084B1B680133074A1360064B75
:1083AC001B68202B02D1044B00221A6000BF0C3733
:1083BC00BD465DF8047B704778340020783300208C
:1083CC0080B400AF034BD3F804351846BD465DF8B6
:1083DC00047B70470010014080B483B000AF78601C
:1083EC007B68043318460C37BD465DF8047B704738
:1083FC0080B483B000AF78607B68013318460C37CB
:10840C00BD465DF8047B704780B483B000AF7860E4
:10841C007B681B7803F08003002BCCBF0123002367
:10842C00DBB218460C37BD465DF8047B704780B450
:10843C0083B000AF78600B46FB707B681B7803F051
:10844C007F03DAB27B681A707B681B785AB2FB78B0
:10845C00DB015BB213435BB2DAB27B681A7000BF0C
:10846C000C37BD465DF8047B704780B483B000AF19
:10847C0078607B681B789B011BB203F4FE531AB225
:10848C007B685B789B08DBB21BB213431BB29BB2BD
:10849C0018460C37BD465DF8047B704780B483B03A
:1084AC0000AF78600B467B807B681B7823F07F03E2
:1084BC00DAB27B681A707B681B785AB27B889B098E
:1084CC009BB25BB203F07F035BB213435BB2DAB2D5
:1084DC007B681A707B685B7803F00303DAB27B6805
:1084EC005A707B685B785AB27B889B005BB21343F3
:1084FC005BB2DAB27B685A7000BF0C37BD465DF8D0
:10850C00047B704780B483B000AF78607B689B7845
:10851C001A067B68DB781B041A437B681B791B02E9
:10852C0013437A685279134318460C37BD465DF8ED
:10853C00047B704780B483B000AF786039603B68CF
:10854C001B0EDAB27B689A703B681B0CDAB27B6844
:10855C00DA703B681B0ADAB27B681A713B68DAB2D4
:10856C007B685A7100BF0C37BD465DF8047B7047C1
:10857C0080B483B000AF78607B681B7803F0400355
:10858C00002BCCBF01230023DBB218460C37BD46B1
:10859C005DF8047B704780B483B000AF78600B4605
:1085AC00FB707B681B7823F04003DAB27B681A708F
:1085BC007B681B785AB2FB789B015BB203F04003DB
:1085CC005BB213435BB2DAB27B681A7000BF0C3734
:1085DC00BD465DF8047B704780B483B000AF786013
:1085EC007B681B7803F03F03DBB218460C37BD46A3
:1085FC005DF8047B704780B483B000AF78600B46A5
:10860C00FB707B681B7823F03F03DAB27B681A702F
:10861C007B681B785AB297F9033003F03F035BB2C7
:10862C0013435BB2DAB27B681A7000BF0C37BD46DD
:10863C005DF8047B704780B483B000AF78607B68D2
:10864C001B7803F08003002BCCBF01230023DBB28B
:10865C0018460C37BD465DF8047B704780B483B078
:10866C0000AF78600B46FB707B681B7803F07F03D0
:10867C00DAB27B681A707B681B785AB2FB78DB0124
:10868C005BB213435BB2DAB27B681A7000BF0C3773
:10869C00BD465DF8047B704780B483B000AF786052
:1086AC007B681B7803F07F03DBB218460C37BD46A2
:1086BC005DF8047B704780B483B000AF78600B46E4
:1086CC00FB707B681B7823F07F03DAB27B681A702F
:1086DC007B681B785AB297F9033003F07F035BB2C7
:1086EC0013435BB2DAB27B681A7000BF0C37BD461D
:1086FC005DF8047B704780B483B000AF78607B6812
:10870C005B7803F08003002BCCBF01230023DBB28A
:10871C0018460C37BD465DF8047B704780B483B0B7
:10872C0000AF78600B46FB707B685B7803F07F03CF
:10873C00DAB27B685A707B685B785AB2FB78DB01E3
:10874C005BB213435BB2DAB27B685A7000BF0C3772
:10875C00BD465DF8047B704780B483B000AF786091
:10876C007B685B789B011BB203F4FE531AB27B68E7
:10877C009B789B08DBB21BB213431BB29BB218460F
:10878C000C37BD465DF8047B704780B483B000AFF6
:10879C0078600B467B807B685B7823F07F03DAB2D2
:1087AC007B685A707B685B785AB27B889B099BB25A
:1087BC005BB203F07F035BB213435BB2DAB27B684C
:1087CC005A707B689B7803F00303DAB27B689A706B
:1087DC007B689B785AB27B889B005BB213435BB27D
:1087EC00DAB27B689A7000BF0C37BD465DF8047B2B
:1087FC00704780B483B000AF78607B689B78DB00F7
:10880C005BB203F018035AB27B68DB785B09DBB20E
:10881C005BB213435BB2DBB218460C37BD465DF856
:10882C00047B704780B483B000AF78600B46FB705C
:10883C007B689B7823F00303DAB27B689A707B68C1
:10884C009B785AB2FB78DB08DBB25BB203F0030314
:10885C005BB213435BB2DAB27B689A707B68DB78ED
:10886C0003F01F03DAB27B68DA707B68DB785AB2EC
:10887C00FB785B015BB213435BB2DAB27B68DA70F4
:10888C0000BF0C37BD465DF8047B704780B483B0E5
:10889C0000AF78607B68DB7803F01F03DBB218460F
:1088AC000C37BD465DF8047B704780B483B000AFD5
:1088BC0078600B46FB707B68DB7823F01F03DAB221
:1088CC007B68DA707B68DB785AB297F9033003F077
:1088DC001F035BB213435BB2DAB27B68DA7000BF82
:1088EC000C37BD465DF8047B704780B483B000AF95
:1088FC0078600B467B807B68C3F30C027B889A42C2
:10890C0009D27A887B68C3F30C03D21A7B681344B0
:10891C00A3F5005306E07A887B68C3F30C03D21AE4
:10892C007B68134418460C37BD465DF8047B7047D2
:10893C002DE9B04F86B000AF786139611346FB81E9
:10894C007B6900229A4693464FEA1A254FEA0A643D
:10895C00FB8919463869FFF7C8FF03460022984681
:10896C00914614EB08033B6045EB09037B60D7E9A8
:10897C000023104619461837BD46BDE8B08F80B4A9
:10898C0000AF00231846BD465DF8047B704780B5E8
:10899C0084B000AF78607B681B7883F00103DBB296
:1089AC00002B04D07B46FB60F868FFF769F97B6805
:1089BC005B7A0133012202FA03F3013B18461037AC
:1089CC00BD4680BD80B58EB000AF0346FB800B4624
:1089DC007B7113463B7107F10C032C2200211846C6
:1089EC0031F04EF90F233B73FB883B827B7903F00C
:1089FC000103DAB2BB7C62F30003BB743B79FB74FA
:108A0C0007F10C03184602F0C9F900BF3837BD4610
:108A1C0080BD80B584B000AF78607B681B78002B7C
:108A2C000BD07B68988A7B6899697B68DA697B686C
:108A3C00DB880BF0E5FEF86009E07B68988A7B68C0
:108A4C0099697B68DB691A460BF0C8FEF860FB6815
:108A5C00002B0BD07B68988A7B68DB69DBB203F058
:108A6C000103DBB200221946FFF7ACFFFB68184686
:108A7C001037BD4680BD80B58EB000AF78600B4618
:108A8C00FB7007F10C032C220021184631F0F8F88A
:108A9C0010233B737B683B61FB783B7507F10C0340
:108AAC00184602F07BF900BF3837BD4680BD000088
:108ABC0080B483B000AF0346FB71074B5A68064B7A
:108ACC009B68F97901FB03F3134418460C37BD4638
:108ADC005DF8047B704700BF7C34002080B483B009
:108AEC0000AF0346FB71074BDA68064B1B69F9793B
:108AFC0001FB03F3134418460C37BD465DF8047BA9
:108B0C00704700BF7C34002080B487B000AF0146B2
:108B1C00C7E900230B46FB8100237B6119E0124A55
:108B2C007B691B0113441B88FA899A420ED10E4AA9
:108B3C007B691B0113440833D3E90023D7E90001F7
:108B4C00994208BF904201D1012306E07B690133B1
:108B5C007B617B69072BE2D9002318461C37BD4685
:108B6C005DF8047B704700BF5836002080B586B096
:108B7C0000AF78607B68D8697B6899697B68DB8813
:108B8C001A46FFF7D5FEC7E904010C4B1B685A1CAB
:108B9C000A490A6003F007031B01094A1344FB60EE
:108BAC007B689A8AFB681A80F968D7E90423C1E9C3
:108BBC00022300BF1837BD4680BD00BF54360020CD
:108BCC005836002080B588B000AFF8600B467A604C
:108BDC00FB72FB7A022B07D0FB7A012B04D07B466D
:108BEC007B617869FFF74CF87B68B3F5C07F04D9DB
:108BFC007B463B613869FFF743F80023FB61002398
:108C0C00BB611CE03E49BA691346DB009B1A1B0191
:108C1C000B4448331B78002B0ED1BA691346DB008A
:108C2C009B1A1B01364A1344FB6178680FF091FCC8
:108C3C000246FB69DA6605E0BB690133BB61BB69BF
:108C4C00032BDFD9FB69002B03D0FB69DB6E002BF8
:108C5C0001D1002350E0FB693022F968184630F04E
:108C6C00D9FFFB690022DA647B689AB2FB69A3F82E
:108C7C004A20FB7A012B23D1224B1A7DFB6983F806
:108C8C005120FB69002283F85220FB69002283F8F3
:108C9C005320FB69002283F85020FB689A6AFB6919
:108CAC005A65FB690022A3F85820FB696FF001029A
:108CBC009A62FB69144A9A63FB69FA691A6413E0B5
:108CCC00FB696FF001029A62FB69002283F868204D
:108CDC00FB690E4A9A65FB69FA691A66FB690C4ACC
:108CEC009A63FB69FA691A64012004F085F8FB6940
:108CFC00FA7A83F84820FB6918462037BD4680BDB8
:108D0C00943400207C34002019A90200E1A8020050
:108D1C0049A9020080B582B000AF78607B68DB6E39
:108D2C0018460FF022FC7B683033184605F052FDD4
:108D3C007B6893F84830022B04D17B68503318467B
:108D4C0005F048FD70220021786830F099FF7B68AF
:108D5C00002283F84820002004F04EF800BF0837AA
:108D6C00BD4680BD90B589B004AF78600B46FB70F2
:108D7C007B68002B04D17B46FB60F868FEF780FF14
:108D8C007B689A697B68DB8819461046FFF7ADFD56
:108D9C00B8607B6893F84830022B0DD17B685B7808
:108DAC0003F00203002B07D07B68988A7B68DB8872
:108DBC00002219462FF002FD7B6893F84830022BF5
:108DCC0002D17868FFF7D2FE7B685B6DFA781146AA
:108DDC001846FFF750FE7868FFF79CFF104B1B6896
:108DEC0003F00403002B17D00E4B1B68032B13DD71
:108DFC000D4CFFF7E5FA02467B6893F848301946AC
:108E0C00FB7802930191094B0093134640F2F31245
:108E1C002146042009F08AFC00BF1437BD4690BDE2
:108E2C004C2E0020502E00206EAB05007CAB0500B4
:108E3C0080B58EB000AF78607B6893F84830012B1A
:108E4C0004D07B467B63786BFEF71AFF01233B72E1
:108E5C007B685B6DFB6005F0D1FD03463B6107F160
:108E6C000803184601F09AFF7868FFF753FF00BF1C
:108E7C003837BD4680BD000090B585B000AF786036
:108E8C007B6893F84830022B04D07B46FB60F86873
:108E9C00FEF7F6FE0C4B5B7D1846FFF709FEB8603B
:108EAC007B6803F1500405F0A9FD0246BB6813442E
:108EBC001946204605F0B8FC7B68012283F868202F
:108ECC0000BF1437BD4690BD7C34002090B585B0F2
:108EDC0000AF78607B6893F84830022B04D07B4657
:108EEC00FB60F868FEF7CCFE094B1B68BB607B6827
:108EFC0003F1300405F082FD0246BB6813441946A9
:108F0C00204605F091FC00BF1437BD4690BD00BF54
:108F1C007C34002080B584B000AF78607B6893F817
:108F2C004830012B04D07B46FB60F868FEF7A8FEA6
:108F3C0005F064FDB8607B681B7B012B06D17B6858
:108F4C009B7D1846FFF7CAFD034603E00020FFF7A0
:108F5C00C5FD0346BA681344BB607B683033B968FF
:108F6C00184605F061FC00BF1037BD4680BD80B5CA
:108F7C0082B000AF786039607B68DB7D002B06D057
:108F8C007B68DB7819463868FFF795FB0BE07B684C
:108F9C00DB7819463868FFF7FEFA7B681B791946AF
:108FAC003868FFF728FB7B681B7819463868FFF791
:108FBC0055FB7B681B78002B1CD07B689B78082B9F
:108FCC000CBF01230023DBB219463868FFF7A6FB60
:108FDC007B68DB8819463868FFF7D7FB7B681B7A00
:108FEC0019463868FFF71EFC7B685B7A19463868AF
:108FFC00FFF75BFC00BF0837BD4680BD80B586B06F
:10900C0000AFF860B9607A603B60FB681B78002B9E
:10901C0001D0042300E001237B617A697B681A4448
:10902C00BB689A60FB6803F10C02BB681A60FB68B2
:10903C009A6ABB685A60FB68DA6ABB68DA60BB681C
:10904C0000221A74B86807F0FBFE38613B69002BEC
:10905C0005D1BB685A697B691A443B681A603B6945
:10906C0018461837BD4680BD90B593B002AF7860F6
:10907C0039600023FB637B681B7B012B74D13D4B58
:10908C001B6803F00403002B0FD03B4B1B68032B16
:10909C000BDD3A4CFFF794F90346394A009240F243
:1090AC0063222146042009F041FB07F130030B2217
:1090BC000021184630F0E4FD7B68DA8807F13003B4
:1090CC0011461846FFF7EAF907F1300339681846DC
:1090DC00FFF730FA7B685B78022B0CBF012300236F
:1090EC00DBB21A4607F1300311461846FFF79FF919
:1090FC0006233B6101233B767B689B8A7B830023A1
:10910C00FB6100233B7207F13003FB607B681B6A39
:10911C003B6200233B757B68DB6ABB627B685B78D8
:10912C00022B0AD107F12C0207F12E031146184627
:10913C001AF0F8FCFB8DFB8202E07B68DB89FB827A
:10914C007B689B7D002B03D1002387F8243003E040
:10915C000C4B5B7D87F8243007F108036FF001019D
:10916C00184601F04FFDF863FB6B18464437BD46BB
:10917C0090BD00BF4C2E0020502E00206EAB050081
:10918C00A0AB05007C34002080B582B000AF7860C5
:10919C007B681B7B012B04D101217868FFF7E2FD72
:1091AC0002E07868FFF744FE00BF0837BD4680BD7B
:1091BC0080B582B000AF78607B6893F85130002B9B
:1091CC0011D07B6893F85130013BDAB27B6883F89D
:1091DC0051207B68002283F85020064B1B681846F0
:1091EC0007F014F802E07868FFF7CEFF00BF0837ED
:1091FC00BD4680BDD836002080B485B000AF786005
:10920C000B467B800023FB6046E02849FA68134636
:10921C00DB009B1A1B010B4448331B78012B38D104
:10922C002249FA681346DB009B1A1B010B441433CA
:10923C001A887B68DB899A422BD11C49FA68134641
:10924C00DB009B1A1B010B4406331B887A889A425D
:10925C001FD11649FA681346DB009B1A1B010B44FD
:10926C0058331B88002B0CD01049FA681346DB00CE
:10927C009B1A1B010B4458331A887B689B8A9A42B1
:10928C0007D1FA681346DB009B1A1B01074A1344EB
:10929C0006E0FB680133FB60FB68032BB5D90023A8
:1092AC0018461437BD465DF8047B70479434002093
:1092BC0080B485B000AF78600023FB6022E01649D3
:1092CC00FA681346DB009B1A1B010B4448331B78CE
:1092DC00022B14D11049FA681346DB009B1A1B01B0
:1092EC000B4414331A887B689B8A9A4207D1FA681C
:1092FC001346DB009B1A1B01074A134406E0FB686C
:10930C000133FB60FB68032BD9D9002318461437B3
:10931C00BD465DF8047B70479434002080B584B062
:10932C0000AF0346FB710023FB6019E01049FA689B
:10933C001346DB009B1A1B010B4448331B78022B92
:10934C000BD1FA681346DB009B1A1B01084A134425
:10935C00FA7911461846FFF705FDFB680133FB60EF
:10936C00FB68032BE2D900BF00BF1037BD4680BDA0
:10937C009434002090B58DB002AF78607B68D869CA
:10938C007B6899697B68DB881A46FFF7D1FAC7E9D5
:10939C0008017B68998AD7E908230846FFF7B4FBD4
:1093AC000346002B01D00023DEE07868FFF780FF36
:1093BC00F861FB69002B44D0FB69D869FB6999699A
:1093CC00FB69DB881A46FFF7B3FAC7E90401D7E952
:1093DC000823D7E90401904271EB030306D205215F
:1093EC00F869FFF7BFFC0023FB612AE0D7E908010D
:1093FC00D7E90423904271EB030320D2FFF7BFFAA5
:10940C000346002B19D05A4B1B6803F00403002BA6
:10941C0013D0584B1B68012B0FDD574CFEF7D0FFB8
:10942C0002467B68DB880193544B0093134640F251
:10943C0037322146022009F079F9002394E0FB69C8
:10944C0092E07B68988A7B6899697B68DA697B68AB
:10945C00DB880BF05FFA0346002B19D07B68988AE7
:10946C007B6899697B68DA697B68DB880BF09CFA0E
:10947C000346002B0AD07868FFF789FA0346194691
:10948C007868FFF7F1FD7868FFF7C3FA00236BE00B
:10949C007B68998AD7E9082308462FF0C7F9034659
:1094AC00002B09D07868FFF772FA034619467868E2
:1094BC00FFF7DAFD002357E0FFF761FA0346002BB4
:1094CC0002D00520FFF72AFF7B685B7A5A1C7B6869
:1094DC00DB7D002B01D0082300E00C2302FB03F3FF
:1094EC00FB607B68DB7D002B02D04FF4807201E0C7
:1094FC004FF4C072FB689A421AD21D4B1B6803F0E2
:10950C000403002B12D01B4B1B68002B0EDD1A4CD6
:10951C00FEF756FF0246FB680193194B0093134666
:10952C0040F27F322146012009F000F900231BE0B4
:10953C00FA6802217868FFF745FBF861FB69002B9C
:10954C0011D1FFF71CFA0346002B04D07B46BB60FD
:10955C00B868FEF795FB00217868FFF785FD0221BE
:10956C000020FFF788FAFB6918462C37BD4690BDE2
:10957C004C2E0020502E00206EAB0500B0AB050029
:10958C00DCAB0500B0B58AB002AFF860B9607A60A8
:10959C003B607868FFF7EEFEF861FB69002B00F08A
:1095AC00D5806D4B1B6803F00403002B13D06B4B61
:1095BC001B68032B0FDD6A4CFEF702FF02467B682B
:1095CC001B7A0193674B0093134640F2A33221465A
:1095DC00042009F0ABF8FFF7D2F9034683F001033E
:1095EC00DBB2002B0ED0F869FFF770FCFB691B7B1C
:1095FC00012B07D1FB6993F86830002B02D1F86975
:10960C00FFF73AFCFB69DA6C7B681B7A194601237D
:10961C008B401340002B40F09B80FB69DA6C7B681D
:10962C001B7A194601238B401A43FB69DA64BB6829
:10963C00043BBB617B681B7A1A467B68DB7D002B85
:10964C0001D0082300E00C2302FB03F37B617B6851
:10965C001A7AFB695B7A9A4209D17B699AB2BB6927
:10966C009BB213449AB2FB69A3F84A200EE07B68C4
:10967C00DB7D002B01D0082200E00C22BB699A4252
:10968C0004D00421F869FFF76DFB62E0FB699A696D
:10969C007B689B699A420BD2FA697B6802F10C04D5
:1096AC0003F10C050FCD0FC495E8030084E803000B
:1096BC00FB69DA6E7B69D418F868FEF78DFE0346F9
:1096CC00BA691946204630F0A5FA7B685B7803F03E
:1096DC000203002B06D0BB68D9B201237A68F86864
:1096EC002EF0D0FEFB69DC6CFB691846FFF74FF9D6
:1096FC0003469C422DD1FFF742F9034683F0010348
:10970C00DBB2002B06D0FA69FB69DB6C19461046FC
:10971C00FFF7AAFC7B685B7803F00203002B07D0F1
:10972C007B68988A7B68DB88012219462FF046F803
:10973C00FB69D86EFB69B3F84A301946FA693B6885
:10974C0001F0A6F8F869FFF7E5FA02E000BF00E0C7
:10975C0000BF2037BD46B0BD4C2E0020502E00203F
:10976C006EAB0500F0AB050080B584B000AFF860BF
:10977C00B9607A603B607B685B7803F00203002B76
:10978C0006D0BB68D9B201237A68F8682EF07AFE4D
:10979C00F868FEF72DFEBB68591E3B687A6801F02D
:1097AC0077F800BF1037BD4680BD000090B587B07C
:1097BC0002AF786039600023FB737B68002B22D0EA
:1097CC007B689A1C3B681A6007F10F0319463868CE
:1097DC0006F0DDFEFB7B002B15D00D4B1B6803F058
:1097EC000403002B0FD00B4B1B68032B0BDD0A4C17
:1097FC00FEF7E6FD0346094A009240F21542214667
:10980C00042008F093FFFB7B18461437BD4690BD2F
:10981C004C2E0020502E00206EAB050000AC050035
:10982C0080B596B000AFF860B9607A603B60FB68B9
:10983C00002B04D17B467B65786DFEF721FABB6863
:10984C00002B04D17B463B65386DFEF719FA3B685B
:10985C00002B04D17B46FB64F86CFEF711FA3B68D5
:10986C005B6A02337B623B6803F10C003B68DB787C
:10987C00002B01D0012100E002213B689B78082BD2
:10988C000CBF01230023DBB21A4607F1140306F0C8
:10989C008BFE07F11403BB62FB68FB627B689BB217
:1098AC003B86BB68FB63FB6B3A8E13443B643B68A3
:1098BC009B7887F844303B681B7B022B0ED13B68AE
:1098CC001B69002B04D17B46BB64B86CFEF7D8F93E
:1098DC003B681B697B6310233B8701E000233B87BC
:1098EC0007F12403184606F047FE00BF5837BD4663
:1098FC0080BD80B483B000AF0346FB71FB79002BB5
:10990C0001D1042300E0082318460C37BD465DF84E
:10991C00047B704780B584B000AF786039603B68D9
:10992C00DB695A787B681A713B68DB691B78002B02
:10993C0014BF01230023DBB283F00103DBB203F07D
:10994C000103DAB27B68DA703B68DA697B685A62C9
:10995C003B689B8A0B2B07D83B68DB7A002B03D127
:10996C003B681B7B012B01D1012300E0002303F09A
:10997C000103DAB27B681A707B681B78002B27D046
:10998C003B681B7B022B02D1354B9B7D01E03B6876
:10999C001B7B1846FFF7ADFF03461A467B689A708F
:1099AC003B689B8A1A467B689B7813440B332D4A81
:1099BC0082FB03125210DB17D31AFB60FB68DBB27D
:1099CC00013BDAB27B685A727B6800221A7202E0A1
:1099DC007B6804229A707B680022DA757B683A688F
:1099EC000C3392E8030083E803003B689A697B68B8
:1099FC001A623B681A897B689A823B689A7A7B6800
:109A0C009A753B681A6A7B689A627B68DF22DA6215
:109A1C003B6818461AF096FA0346002B08D03B68B0
:109A2C001B78012B01D0FF2200E020227B68DA6238
:109A3C0078682EF051FE0346002B0DD07B681B7B03
:109A4C00012B03D17B682022DA6205E07B68DB6A9C
:109A5C0043F020027B68DA6200BF1037BD4680BD40
:109A6C007C340020ABAAAA2A80B586B000AFF8607F
:109A7C00B9607A60BB681A78FB68DA70FB68002200
:109A8C005A62BB689B680B2B03D8BB681B7B002BF3
:109A9C0001D0012300E0002303F00103DAB2FB68DC
:109AAC001A70FB6800229A70FB681B78002B0DD093
:109ABC00BB689B680733DB087B617B69DBB2013BCE
:109ACC00DAB2FB685A72FB6800221A72FB68012238
:109ADC00DA75FB68BA680C33103292E8030083E83D
:109AEC000300BB68DA89FB689A82BB689A69FB68D9
:109AFC001A62BB681A7FFB689A75BB681A6AFB68A6
:109B0C00DA62FB687A689A62F8682EF0E5FD034623
:109B1C00002B0DD0FB681B7B012B03D1FB68202293
:109B2C00DA6205E0FB68DB6A43F02002FB68DA626C
:109B3C0000BF1837BD4680BD80B58CB000AFF86053
:109B4C00B9607A60FB689B781A467B681344FA68A4
:109B5C00D27D002A01D00B2200E00F229A4201D2C2
:109B6C0009232BE0FB689B781A467B681A4407F1A3
:109B7C00100307F11401F868FFF740FAF862FB6A6A
:109B8C00002B1AD1BB6A1946F868FFF7F0F9FB688D
:109B9C00DB7D002B06D03B697A68B968184630F03B
:109BAC0039F805E03969FB687A68B868FFF738FE60
:109BBC0007F11403184607F07DF9FB6A1846303795
:109BCC00BD4680BD80B58EB000AF786039607B68D3
:109BDC00DB7D002B01D0082300E00C237B637B6B27
:109BEC003A6802FB03F33B637B685B7A1A463B687B
:109BFC00934206D17B68B3F84A301A463B6BD31AB2
:109C0C007B633B68DAB27B681A72786807F10C03E5
:109C1C0007F110017A6BFFF7F1F9F862FB6A002B80
:109C2C0054D13B68002B13D17B6893F8533083F0ED
:109C3C000103DBB2002B0BD07B689B699BB2C3F397
:109C4C000C039AB27B68DA807B68012283F853207C
:109C5C007B68DB7D83F00103DBB2002B22D07B68B9
:109C6C0093F8523083F00103DBB2002B1AD03B681F
:109C7C00002B04D07B46BB62B86AFEF701F87B6808
:109C8C00D86E7B68D96E7B68B3F84A301A467B680D
:109C9C009B78D31A1A467B68FFF7C2FD7B680122BA
:109CAC0083F852207B687A6A11461846FFF75FF9F1
:109CBC00F8687B68DA6E3B6B13447A6B19462FF0AD
:109CCC00A9FF07F11003184607F0F4F8FB6A1846D1
:109CDC003837BD4680BD80B584B000AF7860396040
:109CEC000023FB603B68002B02D03B6800221A600B
:109CFC007B6893F85030FB7222E07B68DA6CFB7A5D
:109D0C00012101FA03F31340002B16D1FB7A1946FB
:109D1C007868FFF757FFF860FB68002B16D13B689B
:109D2C00002B04D03B681B685A1C3B681A60FB7AFA
:109D3C000133DAB27B6883F85020FB7A0133FB7273
:109D4C007B685B7AFA7A9A42D7D900E000BFFB684D
:109D5C0018461037BD4680BD90B5D3B004AF07F59B
:109D6C009C73A3F59673186007F59C73A3F5987311
:109D7C00196007F59C73A3F59A731A6007F59C7329
:109D8C00A3F596731B689B781A4607F59C73A3F58D
:109D9C009A731B681344C7F82C3107F59C73A3F511
:109DAC0096731B68DB7D002B02D04FF4807201E0B0
:109DBC004FF4C072D7F82C319A4201D20923F0E04B
:109DCC000023C7F8343136E07849D7F834211346EC
:109DDC00DB009B1A1B010B4448331B78012B25D14C
:109DEC007249D7F834211346DB009B1A1B010B4434
:109DFC0014331A8807F59C73A3F596731B689B8A1A
:109E0C009A4213D16949D7F834211346DB009B1AC7
:109E1C001B010B440E331A8807F59C73A3F596733C
:109E2C001B68DB899A4201D10823BAE0D7F8343198
:109E3C000133C7F83431D7F83431032BC4D907F5C3
:109E4C009C73A3F59673D7F82C2101211868FEF7A3
:109E5C00B9FEC7F82801D7F82831002B01D104230B
:109E6C009FE0D7F82831D86E07F59C73A3F59A724A
:109E7C0007F59C73A3F59873126819682FF0CAFE46
:109E8C000023C7F8183107F58C731946D7F8280149
:109E9C00FFF721FFC7F82401D7F82431002B03D09A
:109EAC00D7F82431042B76D1D7F81831002B03D0F6
:109EBC00D7F82801FFF72EF83D4B1B6803F004037D
:109ECC00002B66D03B4B1B68032B62DDD7F8283187
:109EDC00B3F84A30C7F82031D7F82031802B28BF8F
:109EEC008023C7F820310023C7F8303130E0D7F891
:109EFC002831DA6ED7F8303113441B7887F81F31CC
:109F0C002D4B1A6897F81F311B09DBB203F00F03B6
:109F1C001A44D7F830315B00117807F59C72A2F522
:109F2C009272D154244B1A6897F81F3103F00F0327
:109F3C001A44D7F830315B000133117807F59C7265
:109F4C00A2F59272D154D7F830310133C7F83031C1
:109F5C00D7F83021D7F820319A42C8D3D7F820311E
:109F6C005B0007F59C72A2F592720021D154134C40
:109F7C00FEF726FA024607F114030293104B0193E5
:109F8C00104B009313464FF4AC622146042008F0AA
:109F9C00CDFB002305E0D7F82801FEF7BBFED7F870
:109FAC002431184607F59E77BD4690BD94340020A9
:109FBC004C2E0020502E0020482E00206EAB0500A9
:109FCC0014AC050024AC050080B584B000AF0023B0
:109FDC00FB602CE01A49FA681346DB009B1A1B0144
:109FEC000B4448331B78012B1ED100237B60FA688D
:109FFC001346DB009B1A1B01114A13443A1D1146F0
:10A00C001846FFF768FEB860BB68042B02D07B686B
:10A01C00002B09D0FA681346DB009B1A1B01084A77
:10A02C0013441846FEF776FFFB680133FB60FB68B0
:10A03C00032BCFD900BF00BF1037BD4680BD00BF7A
:10A04C009434002080B582B000AF78607B6893F8C0
:10A05C004830022B12D17B6893F86830022B0DD15B
:10A06C007A687B68DB6C19461046FEF7FDFF0346E9
:10A07C00002B03D17B68002283F8682000BF0837CF
:10A08C00BD4680BD80B582B000AF00237B600CE084
:10A09C007A681346DB009B1A1B01084A13441846C6
:10A0AC00FFF7D0FF7B6801337B607B68032BEFD914
:10A0BC0000BF00BF0837BD4680BD00BF94340020F0
:10A0CC0080B500AFFFF780FFFFF7DCFF01231846D8
:10A0DC0080BD80B598B000AFF860B9607A603B6025
:10A0EC00FB689B697B65FB681B78002B0AD0FB68BF
:10A0FC009A69FB68DB8819461046FEF7F6FB0246A8
:10A10C00FB689A61FB6803F10C00FB68DB78002BA1
:10A11C0001D0012100E00221FB689B78082B0CBFC9
:10A12C0001230023DBB21A4607F1440306F03CFA84
:10A13C00FB687A6D9A6107F144037B62BB68BB6272
:10A14C007B689AB2FB689B789BB2D31A9BB2BB8597
:10A15C00BB6ABA8D1344FB633B68BB63FB689B789B
:10A16C0087F840300023BB86FB68DB78002B57D088
:10A17C00FB681B7B022B04D11023BB86FB681B697D
:10A18C003B63FB6800225A620023BB610023FB6126
:10A19C00FB68186AFB68197907F11803043307F197
:10A1AC00180219F069FB0023FB651BE0FB6D9B009B
:10A1BC0060333B4453F8483C07F1200211461846E3
:10A1CC00FFF7F4FA0346002B09D0FB6D9B006033BC
:10A1DC003B4453F8482CFB685A62002350E0FB6D5B
:10A1EC000133FB65FB6D012B07D8FB6D9B006033C6
:10A1FC003B4453F8483C002BD8D1BB69002BC7D14A
:10A20C00FB681B7B022B3AD1FB68DA89FB680C33A9
:10A21C001946104619F050FC0346002BA8D12EE02D
:10A22C00FB681B7B012B2AD1FB68DB89BB82FB689B
:10A23C009B8AFB820023BB651EE0FB6800225A62EE
:10A24C00BB6D5B0060333B4433F84C2CFB68243310
:10A25C001946104619F04BFBFB685B6A07F12002AC
:10A26C0011461846FFF7A2FA0346002B01D0002333
:10A27C0006E0BB6D0133BB65BB6D012BDDD905233E
:10A28C0018466037BD4680BD80B582B000AF78609F
:10A29C007B689B8A184603F0EDFA0346012B03D129
:10A2AC007B681B7B002B01D1102336E07B689B7DE8
:10A2BC005BB2002B01DA07232FE07B68DB7D002BE0
:10A2CC0010D07B681B7B022B01D1102325E07B680F
:10A2DC00DB785BB2002B03DB7B689B78002B1BD0FD
:10A2EC0007231AE07B68DB7883F00103DBB2002BD9
:10A2FC0005D07B681B7B012B01D007230DE07B680D
:10A30C001B7883F00103DBB2002B05D07B689B78B4
:10A31C00042B01D0072300E0002318460837BD4664
:10A32C0080BD000080B586B000AFF860B9607A607F
:10A33C003B60BB68002B01D109238EE03B6A0C33D8
:10A34C001822796818462FF065FC3B6A00225A7077
:10A35C00F868FEF770F90346002B14BF01230023A5
:10A36C00DAB23B6A1A703B6A1B78002B01D00423CB
:10A37C0000E001237B61BA687B699A4201D2092310
:10A38C006BE03B6ADB7D002B0AD0F868FEF784F9A2
:10A39C0003461A463B6ADA703B6A00229A702EE03A
:10A3AC00F868FEF7E5F80346002B14BF01230023E1
:10A3BC00DAB23B6ADA70F868FEF70EF903461A4611
:10A3CC003B6A1A713B6A1B78002B0BD0F868FEF7BE
:10A3DC0092F90346002B01D0082200E004223B6ACC
:10A3EC009A700CE03B6A04229A703B6A9B781A467E
:10A3FC007B691344BA689A4201D209232DE03B6A67
:10A40C001B78002B14D0F868FEF7A6F903461A4601
:10A41C003B6ADA80F868FEF7ECF903461A463B6AA9
:10A42C001A72F868FEF732FA03461A463B6A5A72F9
:10A43C003B6A00225A623B681B78032B04D97B468B
:10A44C003B613869FDF71CFC3B681B781A46054BD1
:10A45C0053F822203B6ADA62002318461837BD46AF
:10A46C0080BD00BFF8AC050090B58DB004AFF860AE
:10A47C00B9607A603B60BB68062B40F08C80F86852
:10A48C00FDF7F3FF0346FB83F868FEF73BF8B86172
:10A49C00F868FDF7B9FF0346002B14BF0123002316
:10A4AC00FB75FB8B19467868FEF7A6FE38613B6995
:10A4BC00002B16D13B4B1B6803F00403002B6DD013
:10A4CC00394B1B68012B69DD384CFDF779FF0346CE
:10A4DC00374A009240F279622146022008F026F9B0
:10A4EC005CE0FB7D83F00103DBB2002B24D03B69E5
:10A4FC00DA897B689B8A9A421ED02A4B1B6803F030
:10A50C000403002B49D0284B1B68012B45DD274C3D
:10A51C00FDF756FF02463B69DB8919467B689B8A2F
:10A52C0002930191234B0093134640F27D62214626
:10A53C00022008F0FBF830E0FB7D002B04D07B6898
:10A54C009A8A3B69A3F858203B69DA6CBB691A43B9
:10A55C003B69DA64BB69002B04D103213869FEF72F
:10A56C0001FC1BE03B69DC6C3B691846FEF70FFAFB
:10A57C0003469C4203D13869FEF75AFC0EE03B6956
:10A58C00002283F8502000213869FFF7A4FB3869BA
:10A59C00FEF7C0FC02E000BF00E000BF2437BD4660
:10A5AC0090BD00BF4C2E0020502E00206EAB05003D
:10A5BC002CAC05005CAC050080B487B000AF034642
:10A5CC00FB7100237B6120E07B69DB00154A13449F
:10A5DC00FB6000233B6110E0FB681A683B69DB0001
:10A5EC001344BB60BB681B78FA799A4202D1BB68F2
:10A5FC005B6810E03B6901333B61FB685B683A695F
:10A60C009A42E9D37B6901337B61074B1B687A69FA
:10A61C009A42D9D3002318461C37BD465DF8047BFB
:10A62C00704700BFDC360020EC36002080B58EB0C1
:10A63C0000AFF860B9607A603B607868FEF7E9F9C2
:10A64C000346002B39D17B68DB78002B06D13B68A5
:10A65C007A68B968F868FFF707FF2EE07B68DB784B
:10A66C001846FFF7A9FF78637B6B002B24D07B681F
:10A67C00DB783B747B681B6ABB627B689B8AFB83C1
:10A68C007A6807F120030C3292E8030083E8030098
:10A69C007B689B7D87F82C30FB687B61BB68BB615A
:10A6AC007B681B783B777B68DB6A3B6307F11002A6
:10A6BC007B6B39681046984700BF00BF3837BD46E2
:10A6CC0080BD000090B5F5B002AF07F5E474A4F5B9
:10A6DC00DE74206007F5E470A0F5E070016007F50A
:10A6EC00E471A1F5E2710A6007F5E472A2F5E47277
:10A6FC00136007F1440307F5E472A2F5E07207F565
:10A70C00E471A1F5DE7107F5E470A0F5E270126852
:10A71C0009680068FFF7DDFCC7F8C401D7F8C4313D
:10A72C00002B40F0918007F5E473A3F5E2731868F1
:10A73C00FEF76FF90346002B40F09C8007F5E4739D
:10A74C00A3F5C67301221A7007F5E473A3F5E2733F
:10A75C001B689A8A07F5E473A3F5C6735A8007F54C
:10A76C00E473A3F5C67300225A6007F5E473A3F5EE
:10A77C00DC7300221A7007F5E473A3F5DC7307F1A0
:10A78C0044025A6007F5E473A3F5E0731B689AB2B0
:10A79C0007F5E473A3F5E2731B689B789BB2D31A9D
:10A7AC009AB207F5E473A3F5DC731A8107F5E47329
:10A7BC00A3F5DC7307F5E472A2F5C6720C3392E8CC
:10A7CC00030083E8030007F5E473A3F5DC7307F5D6
:10A7DC00E472A2F5E272126814330C3292E80300B0
:10A7EC0083E8030007F5E473A3F5E2731B689A7D15
:10A7FC0007F5E473A3F5DC7383F8242007F5E47301
:10A80C00A3F5E2731B681A6A07F5E473A3F5DC730E
:10A81C00DA6107F5E473A3F5E2731B685A6A07F56E
:10A82C00E473A3F5DC731A6207F5E473A3F5DC7328
:10A83C0007F5E472A2F5E47212689A6207F110034C
:10A84C00184600F0ABFA15E00D4B1B6803F004033F
:10A85C00002B0FD00B4B1B68052B0BDD0A4CFDF7A7
:10A86C00AFFD0346094A009240F2037221460620CE
:10A87C0007F05CFF00BF07F5E677BD4690BD00BF53
:10A88C004C2E0020502E00206EAB0500A0AC050015
:10A89C0080B584B000AFF860B9607A603B607B68CB
:10A8AC005B7803F00103002B10D07B68DB7D002B61
:10A8BC0006D03B687A68B968F868FFF7B7FE05E020
:10A8CC003B687A68B968F868FFF7FCFE00BF103780
:10A8DC00BD4680BD80B584B000AF786039603B6800
:10A8EC00FB60FB6893F84830022B04D07B46BB60BE
:10A8FC00B868FDF7C5F9FB68022283F86820F86890
:10A90C00FFF7A0FB00BF1037BD4680BD80B584B0FB
:10A91C0000AF786039603B68FB60FB6893F84830A7
:10A92C00012B04D07B46BB60B868FDF7A9F9F86829
:10A93C00FEF73EFC00BF1037BD4680BD80B584B02D
:10A94C0000AF786039603B68FB600021F868FEF767
:10A95C0009FA00BF1037BD4680BD000080B590B02D
:10A96C0000AFB9607A603B600346FB73FB7B002B46
:10A97C000ED13B6813F1020F0AD001233B753B68E3
:10A98C00BB617B68FB6107F11403184600F006FA03
:10A99C00044B1B68184605F039FC00BF4037BD4618
:10A9AC0080BD00BFD836002080B586B000AFF860FF
:10A9BC00B9607A60F868FFF767FC78617B69002BF7
:10A9CC0001D07B6910E0FB681B78002B06D07A68FD
:10A9DC00B968F868FFF7C0F9034605E07A68B9680A
:10A9EC00F868FFF7A9F8034618461837BD4680BD2E
:10A9FC0080B500AF4FF4E07200211A482FF040F9F7
:10AA0C0009F0BAFE184B00221A6080220021174868
:10AA1C002FF036F9164B174A1A60154B164A5A6026
:10AA2C00134B4CF250329A60114B144ADA60104BB3
:10AA3C004CF250321A610E4B04221A750C4B002248
:10AA4C009A750B4B08225A750D4805F0ADFB034661
:10AA5C000C4A13600C4B00221A600C480AF000FAE6
:10AA6C0000BF80BD9434002054360020583600209E
:10AA7C007C34002080969800F049020020A1070049
:10AA8C00CDA00200D8360020EC36002069A90200C7
:10AA9C0080B500AF09F092FE00BF80BD80B596B0C6
:10AAAC0002AFF860B9607A603B600023FB64FB681E
:10AABC00002B02D07B68002B01D10E2372E007F132
:10AACC001C0300933B687A68B968F868FFF72AFCA6
:10AADC00F864FB6C002B01D0FB6C63E007F11C03EA
:10AAEC001846FFF7D1FBF864FB6C002B01D0FB6C14
:10AAFC0058E007F11C0318462DF0EEFD0346002B21
:10AB0C0004D07B7F43F00203DBB27B7707F11403A5
:10AB1C000822002118462FF0B3F87B685B8807F1F8
:10AB2C0014021146184618F0C7FF0346002B04D038
:10AB3C007B7F43F00103DBB27B777B6818897B68F2
:10AB4C00D9687B681B691A4609F0AAFE0346002BDC
:10AB5C0009D07B7F23F00103DBB27B777B7F002B5B
:10AB6C0001D1FB6C1EE07B7F002B01D1FB6C19E04B
:10AB7C007B7F03F00103002B01D0BB69FB623B7FA1
:10AB8C00002B07D007F11C023B68B968F868FEF788
:10AB9C00F9FC06E007F11C023B68B968F868FEF79F
:10ABAC00E3FD002318465037BD4680BD80B58EB0FE
:10ABBC0000AF786039607B68002B0BD07B681B6919
:10ABCC00002B07D07B68DB69002B03D07B689B696B
:10ABDC00002B01D10E2310E007F108037968184609
:10ABEC00FEF798FE7B6819697B689B8A1A4607F109
:10ABFC0008031846FFF7D8FE034618463837BD46FB
:10AC0C0080BD000090B593B004AF786039607B686C
:10AC1C00002B07D07B685B68002B03D07B689B699B
:10AC2C00002B01D10E232FE007F108033A68796855
:10AC3C001846FEF719FF164B1B6803F00403002B94
:10AC4C0017D0144B1B68062B13DD134CFDF7B8FB08
:10AC5C0002467B681B7819467B689B6902930191BD
:10AC6C000E4B0093134640F605022146072007F0D1
:10AC7C005DFD7B685B6819467B689A6807F1080381
:10AC8C001846FFF791FE034618463C37BD4690BD6B
:10AC9C004C2E0020502E00206EAB0500CCAC0500D5
:10ACAC0080B584B000AF786039607B68002B01D12F
:10ACBC000E2349E0264B1B68012B01D9042343E0EA
:10ACCC000023FB6029E0FB68DB007A6813445B68B7
:10ACDC00002B01D10E2337E0FB68DB007A681344AC
:10ACEC001B785BB2002B01DA0B232DE0FB68DB0039
:10ACFC007A6813441B78002B0AD0FB68DB007A6857
:10AD0C0013441B781846FFF757FC0346002B01D061
:10AD1C000F2319E0FB680133FB60FA683B689A4229
:10AD2C00D1D30B4B1B680B497A6841F83320084B85
:10AD3C001B68084ADB0013443A685A60044B1B68D2
:10AD4C000133034A1360002318461037BD4680BDFB
:10AD5C00EC360020DC36002080B584B000AF0E4B02
:10AD6C001B68FB600FE0FB68043BBB60FB681B6867
:10AD7C007B60BB681B7A002B03D0F968064807F090
:10AD8C00F7FB7B68FB60FB68002BECD100BF00BFBE
:10AD9C001037BD4680BD00BFF036002080B586B0B0
:10ADAC0000AF78607B68002B04D17B463B6138692F
:10ADBC00FCF766FF154B1B68002B23D0144B0122AC
:10ADCC001A70124B1B687B6110E07B69043BFB60C3
:10ADDC00FB681B7A83F00103DBB2002B03D0FB680A
:10ADEC001B68786898477B691B687B617B69002BC3
:10ADFC00EBD1074B1B78022B01D1FFF7ADFF044BB6
:10AE0C0000221A7000BF1837BD4680BDF0360020F6
:10AE1C00F436002080B584B000AF78607B68002BDE
:10AE2C0004D17B46FB60F868FCF72AFF7B680022A4
:10AE3C001A727B6804331946034807F057FB00BFAE
:10AE4C001037BD4680BD00BFF036002080B584B001
:10AE5C0000AF78607B68002B04D17B46FB60F86800
:10AE6C00FCF70EFF0C4B1B78012B03D00A4B1B7805
:10AE7C00022B06D1084B02221A707B6801221A722F
:10AE8C0006E07B6804331946044807F071FB00BFE9
:10AE9C0000BF1037BD4680BDF4360020F0360020D0
:10AEAC0080B483B000AF786039607B689B683A6887
:10AEBC00D31A9BB218460C37BD465DF8047B70471D
:10AECC0080B483B000AF78600B467B807B689A6857
:10AEDC007B88134418460C37BD465DF8047B7047DD
:10AEEC0080B584B000AF786039603B681B88194628
:10AEFC007868FFF7E5FF03461B880433BB813B688A
:10AF0C001A88BB8903339BB223F003039BB213440F
:10AF1C00FB81FA897B681B88043B9A4201D9002388
:10AF2C00FB813B68FA891A8000BF1037BD4680BD93
:10AF3C0080B584B000AF7860396039687868FFF705
:10AF4C00AFFF0346FB8107F10E0319467868FFF744
:10AF5C00C7FFFB8919467868FFF7B2FF034618460E
:10AF6C001037BD4680BD80B584B000AF78603960C5
:10AF7C007B689B687A68928813443A689A4204D03A
:10AF8C007B46FB60F868FCF77BFE3B6800229A70FE
:10AF9C007B68043319467868FFF7A2FF7B689B88AF
:10AFAC0019467868FFF78CFF03469B78042B02D177
:10AFBC007B6800229A8000BF1037BD4680BD80B5EB
:10AFCC0084B000AF786039607B689B687A6852887F
:10AFDC0013443A689A4204D07B46FB60F868FCF74D
:10AFEC004FFE3B6800229A7000BF1037BD4680BDF3
:10AFFC0080B483B000AF78607B681B88043B9BB245
:10B00C0018460C37BD465DF8047B704780B584B09C
:10B01C0000AF78600B467B807B685B88194678684C
:10B02C00FFF74EFFF860FB687A881A80FB680122F4
:10B03C009A70FB6818461037BD4680BD80B582B04B
:10B04C0000AF786000217868FFF73AFF03460022D2
:10B05C009A707B6800225A807B6800229A8000BF1D
:10B06C000837BD4680BD80B586B000AF78600B4612
:10B07C007B807B8807339BB223F003037B827B6846
:10B08C005A887B689B889A420ED27A8A7B689B8806
:10B09C0019467B685B88CB1A9A4202DC00237B61E1
:10B0AC0042E004237B613FE07B685A887B689B8885
:10B0BC009A4227D97B681B881A467B685B88D31A0F
:10B0CC00FB607B8AFA689A4202D300237B612BE0F7
:10B0DC007B689B887A8A9A4211D8FB68032B08D923
:10B0EC007B685B8819467868FFF7EAFE0346042202
:10B0FC009A707B6800225A8000237B6114E0042341
:10B10C007B6111E07B689B8819467868FFF7D8FE55
:10B11C0003469B78002B05D17868FFF78FFF00233F
:10B12C007B6101E004237B617B6918461837BD46BF
:10B13C0080BD80B58AB000AFF860B9601346FB8063
:10B14C00BB68002B04D17B467B62786AFCF798FDC8
:10B15C00FB68002B04D17B463B62386AFCF790FD00
:10B16C00BB68B3F1005F09D94FF08053D3F80C31B1
:10B17C0003F500239A02BB689A4212D8BB68B3F558
:10B18C00000F09D94FF08053D3F80C3103F500535D
:10B19C009A02BB689A4204D87B46FB61F869FCF7BB
:10B1AC006FFDFB88013BBA681344B3F1005F0DD906
:10B1BC00FB88013BBA6813441A464FF08053D3F80E
:10B1CC000C3103F500239B029A4219D3FB88013BF7
:10B1DC00BA681344B3F5000F0DD9FB88013BBA686C
:10B1EC0013441A464FF08053D3F80C3103F5005337
:10B1FC009B029A4204D37B46BB61B869FCF740FDC5
:10B20C00FB88042B04D87B467B617869FCF738FDFE
:10B21C00FB68FA881A80FB6800225A80FB680022BF
:10B22C009A80FB68BA689A600021F868FFF748FEBC
:10B23C003861FB681B88043B9AB23B691A803B69F6
:10B24C0000229A7000BF2837BD4680BD80B588B0FB
:10B25C0000AF78607B68002B04D17B46FB61F869FA
:10B26C00FCF70EFD7B685B8819467868FFF728FEB3
:10B27C0003469B78012B04D17B46BB61B869FCF774
:10B28C00FFFCEFF310837B6172B67B689B881946D9
:10B29C007868FFF715FE38613B699B78032B0CBF70
:10B2AC0001230023FB73FB7B002B10D039697868DA
:10B2BC00FFF73EFE386139697868FFF7F1FD034608
:10B2CC001A467B685A803B6900229A7002E07868C3
:10B2DC00FFF7B4FE7B69002B01D162B600BF00BF43
:10B2EC002037BD4680BD80B58AB000AFF860B9602C
:10B2FC001346FB80FB68002B04D17B467B62786A8B
:10B30C00FCF7BEFCBB68002B04D17B463B62386A61
:10B31C00FCF7B6FCFB685B881946F868FFF7D0FDB4
:10B32C0003469B78012B04D17B46FB61F869FCF743
:10B33C00A7FCFB88002B07D0F868FFF759FE0346E3
:10B34C001A46FB88934201D909231AE0EFF31083C4
:10B35C00BB6172B6FB881946F868FFF784FE78610A
:10B36C007B69002B07D1FB881946F868FFF74EFE66
:10B37C000246BB681A60BB69002B01D162B600BFE4
:10B38C007B6918462837BD4680BD80B58CB000AFB0
:10B39C00F860B9601346FB80FB68002B04D17B4638
:10B3AC00FB62F86AFCF76CFCBB68002B04D17B4693
:10B3BC00BB62B86AFCF764FCBB689B78012B04D0B9
:10B3CC007B467B62786AFCF75BFCBB681B88FA885F
:10B3DC009A4204D97B463B62386AFCF751FCFB88E5
:10B3EC00002B04D17B46FB61F869FCF749FCEFF3B9
:10B3FC001083BB6172B6BB68FA881A80BB680222E4
:10B40C009A70FB6802331946F868FFF769FDFB6810
:10B41C005A88FB689B889A4209D0FB685B8819465E
:10B42C00F868FFF74DFD78617B6900229A70BB6963
:10B43C00002B01D162B600BF00BF3037BD4680BDC6
:10B44C0080B588B000AF786039607B68002B04D180
:10B45C007B467B617869FCF713FC3B68002B04D1BD
:10B46C007B463B613869FCF70BFC0023FB61EFF377
:10B47C001083FB6072B67B689B8819467868FFF76F
:10B48C001FFDB861BB699B78042B0CD17B6804331E
:10B49C0019467868FFF724FD7B689B881946786805
:10B4AC00FFF70EFDB861BB699B78022B02D0032B12
:10B4BC0007D00CE0BB6903229A703B68BA691A602A
:10B4CC0008E07B46BB60B868FCF7DAFB02E00523BA
:10B4DC00FB6100BFFB68002B01D162B600BFFB69AA
:10B4EC0018462037BD4680BD80B586B000AF786069
:10B4FC007B68002B04D17B463B613869FCF7C0FBB1
:10B50C00EFF31083FB6072B67B689B8819467868F2
:10B51C00FFF7D6FC78617B699B78042B04D17969A1
:10B52C007868FFF705FD78617B699B78022B0CBF6F
:10B53C0001230023FB72FB68002B01D162B600BF14
:10B54C00FB7A18461837BD4680BD80B586B000AF73
:10B55C0078607B68002B04D17B463B613869FCF733
:10B56C008FFBEFF31083FB6072B67B689B881946E8
:10B57C007868FFF7A5FC786104E079697868FFF7D3
:10B58C00D7FC78617B699B78032BF6D07B699B7821
:10B59C00042BF2D07B699B78022B0CBF0123002378
:10B5AC00FB72FB68002B01D162B600BFFB7A184618
:10B5BC001837BD4680BD80B586B000AF7860396065
:10B5CC007B68002B04D17B467B617869FCF758FBC8
:10B5DC003B68002B04D17B463B613869FCF750FB80
:10B5EC00EFF31083FB6072B63B689B78012B06D09F
:10B5FC00032B09D139687868FFF7B5FC09E0396885
:10B60C007868FFF7DCFC04E07B46BB60B868FCF7AD
:10B61C0037FBFB68002B01D162B600BF00BF1837A7
:10B62C00BD4680BD80B586B000AF7860EFF3108367
:10B63C003B6172B67B689B8819467868FFF740FCC3
:10B64C0078617B699B78042B04D179697868FFF762
:10B65C006FFC78617B699B78002B0CBF0123002366
:10B66C00FB733B69002B01D162B600BFFB7B184614
:10B67C001837BD4680BD000080B400AF034BD3F833
:10B68C0004351846BD465DF8047B70470010014038
:10B69C0080B588B000AFF860B9607A603B60012378
:10B6AC003B74FB687B61BB68FB617B68BB6107F12A
:10B6BC0010033A681946012001F07EFF0346184634
:10B6CC002037BD4680BD80B588B000AFF860B9604A
:10B6DC007A6002233B74FB687B61BB68BB6107F13A
:10B6EC0010037A681946012001F066FF03461846DC
:10B6FC002037BD4680BD80B483B000AF78607B68D6
:10B70C005B791B035B427A68134418460C37BD46C1
:10B71C005DF8047B704780B483B000AF78607B68C1
:10B72C001B791A467B685B79D31A03F57F2303F6E2
:10B73C00FF731B037A68134418460C37BD465DF83B
:10B74C00047B704780B582B000AF78607868FFF7F3
:10B75C00E2FF034603F5805318460837BD4680BD0B
:10B76C0080B483B000AF0346FB80FB88002B05D070
:10B77C00FB88B3F5FE4F01D2012300E0002303F058
:10B78C000103DBB218460C37BD465DF8047B7047ED
:10B79C0080B483B000AF78607B681B781A467B68F6
:10B7AC00134418460C37BD465DF8047B704780B5D2
:10B7BC0084B000AF78607B681B88002B04D17B467B
:10B7CC00FB60F868FCF75CFA7B681B889B007A6866
:10B7DC001A447B681B889B0079680B4423F47F63B5
:10B7EC0023F00F039A4204D07B685B88B3F5FE4FBD
:10B7FC000BD17B6823F47F6323F00F0303F5805395
:10B80C001846FFF7C5FF034604E07B681B889B00C6
:10B81C007A68134418461037BD4680BD80B584B095
:10B82C0000AF786039607B68FB607868FFF7BFFF1A
:10B83C0078607A683B689A4203D27A68FB689A42CD
:10B84C0001D800230BE07B685B881846FFF788FF64
:10B85C00034683F00103DBB2002BE6D17B6818466C
:10B86C001037BD4680BD80B584B000AFF860B960BC
:10B87C007A603B60FB6800225A60BB685B881846A4
:10B88C00FFF76EFF034683F00103DBB2002B0CD0F5
:10B89C007968B868FFF7C2FFB860BB68002B04D1A9
:10B8AC00FB6800221A60002330E0FB68BA681A605B
:10B8BC000BE0FB685A68BB681B889B001A44FB684A
:10B8CC005A60B868FFF773FFB860BA687B689A4231
:10B8DC001BD2FB685A68BB681B889B0013443A68F0
:10B8EC009A4212D9FB681B681A46BB68534023F472
:10B8FC007F6323F00F03002B07D1BB685B881846CE
:10B90C00FFF72EFF0346002BD3D1BB681846103728
:10B91C00BD4680BD98B500AF134BDB681846FFF7EA
:10B92C0037FF114BDB6803F580530022194609F0F1
:10B93C0046FA0346002B13D10B4BDC680A4BDB6831
:10B94C001846FFF7E8FE03469C4201D1022308E0AB
:10B95C00054BDB6803F58053034AD360032300E0F7
:10B96C000123184698BD00BFFC36002080B500AFFF
:10B97C00074B1B68074A4FF480511846FFF7A3FE8C
:10B98C000346002B01D1012300E00023184680BDA3
:10B99C00F83600201837002080B582B000AF144B69
:10B9AC00DB681B787B60134B1B68181D104BD96828
:10B9BC00114B7A68FFF76CFE0346002B12D10D4B2E
:10B9CC001A687B689B089B0013440433084A536134
:10B9DC00074BDB681846FFF7DBFE0346044A13618E
:10B9EC00012300E0002318460837BD4680BD00BF88
:10B9FC00FC360020F83600201837002090B589B0AE
:10BA0C0000AF344B1B69002B04D17B46BB61B8697A
:10BA1C00FCF736F92F4B5B69002B04D17B467B611D
:10BA2C007869FCF72DF90023FB7747E0294B5B691C
:10BA3C0023F47F6323F00F03264A52699B1A03F504
:10BA4C0080533B61234B1C69224BDB681846FFF784
:10BA5C0079FE024638463B692146FFF704FFF86041
:10BA6C007B68002B1FD01B4B586939687A681A4BBE
:10BA7C00FFF70EFE0346002B13D1164B5A697B6859
:10BA8C0023F003031344134A5361FB68002B04D1C6
:10BA9C007B46BB60B868FCF7F3F80E4AFB68136191
:10BAAC0003E0002311E00123FB77FB68002B0BD094
:10BABC00FB685B8847F6FF72934205D0FB7F83F0EF
:10BACC000103DBB2002BB1D1012318462437BD464C
